{
  "transactions": [
    {
      "hash": "0xd20003948d02a470ff24b0228f09d48964da65480c972774296f983f945542ad",
      "transactionType": "CALL",
      "contractName": "CrossChainReceiver",
      "contractAddress": "0x1dd995b941dca469952720dda9a1d7b470c59a49",
      "function": "setRegisteredSender(uint16,bytes32)",
      "arguments": [
        "30",
        "0x00000000000000000000000099b7abe1b7a8c7bdc45d1d4b66826bc94086e57f"
      ],
      "transaction": {
        "from": "0xe2f215bbd5c214ac79bb1315d05117673c1a7d7e",
        "to": "0x1dd995b941dca469952720dda9a1d7b470c59a49",
        "gas": "0x13d04",
        "value": "0x0",
        "input": "0xdd12d68b000000000000000000000000000000000000000000000000000000000000001e00000000000000000000000099b7abe1b7a8c7bdc45d1d4b66826bc94086e57f",
        "nonce": "0x4eb",
        "chainId": "0xa4b1"
      },
      "additionalContracts": [],
      "isFixedGasLimit": false
    }
  ],
  "receipts": [
    {
      "status": "0x1",
      "cumulativeGasUsed": "0xe51d",
      "logs": [],
      "logsBloom": "0x00000000000000000000000000000000000000000000000000000000000000000000000000000000000000000000000000000000000000000000000000000000000000000000000000000000000000000000000000000000000000000000000000000000000000000000000000000000000000000000000000000000000000000000000000000000000000000000000000000000000000000000000000000000000000000000000000000000000000000000000000000000000000000000000000000000000000000000000000000000000000000000000000000000000000000000000000000000000000000000000000000000000000000000000000000000",
      "type": "0x2",
      "transactionHash": "0xd20003948d02a470ff24b0228f09d48964da65480c972774296f983f945542ad",
      "transactionIndex": "0x1",
      "blockHash": "0xbf1e90ee5eeafa67f5d0853cf950114a0c75ef5bf294173686bf443052189b54",
      "blockNumber": "0x14d285d6",
      "gasUsed": "0xe51d",
      "effectiveGasPrice": "0x989680",
      "from": "0xe2f215bbd5c214ac79bb1315d05117673c1a7d7e",
      "to": "0x1dd995b941dca469952720dda9a1d7b470c59a49",
      "contractAddress": null,
      "gasUsedForL1": "0x2f24",
      "l1BlockNumber": "0x15b1374",
      "timeboosted": false
    }
  ],
  "libraries": [],
  "pending": [],
  "returns": {},
  "timestamp": 1750425932,
  "chain": 42161,
  "commit": "261220f"
}