{
  "transactions": [
    {
      "hash": "0x52eba536905e24fbd6e2edb035d85b15d443dcb459d93891c2eb2e0c49ea2b9a",
      "transactionType": "CALL",
      "contractName": null,
      "contractAddress": "0x218ffd3555a754f4d628d83c9813565abf6d59af",
      "function": "approve(address,uint256)",
      "arguments": [
        "0x99B7ABE1B7A8c7BDc45D1d4B66826Bc94086E57F",
        "20000000000000000000"
      ],
      "transaction": {
        "from": "0x255ec453f14ed7ba3d7bebf9f253e17778b6adf3",
        "to": "0x218ffd3555a754f4d628d83c9813565abf6d59af",
        "gas": "0x10c4a",
        "value": "0x0",
        "input": "0x095ea7b300000000000000000000000099b7abe1b7a8c7bdc45d1d4b66826bc94086e57f000000000000000000000000000000000000000000000001158e460913d00000",
        "nonce": "0x9",
        "chainId": "0x2105"
      },
      "additionalContracts": [],
      "isFixedGasLimit": false
    },
    {
      "hash": "0xb9d97a934613ef7f2af7230444620e6fa6f4d6e242031dca5bde4f6b2cba6121",
      "transactionType": "CALL",
      "contractName": null,
      "contractAddress": "0x99b7abe1b7a8c7bdc45d1d4b66826bc94086e57f",
      "function": "sendCrossChainDeposit(uint16,address,address,uint256,address)",
      "arguments": [
        "23",
        "0x1Dd995B941dCa469952720dDA9A1D7b470C59A49",
        "0x255eC453F14Ed7ba3d7BEbF9F253E17778b6ADF3",
        "20000000000000000000",
        "0x218Ffd3555a754F4D628D83C9813565aBF6D59aF"
      ],
      "transaction": {
        "from": "0x255ec453f14ed7ba3d7bebf9f253e17778b6adf3",
        "to": "0x99b7abe1b7a8c7bdc45d1d4b66826bc94086e57f",
        "gas": "0x5bc8b",
        "value": "0x53e507c04fa0",
        "input": "0x8d3ea48900000000000000000000000000000000000000000000000000000000000000170000000000000000000000001dd995b941dca469952720dda9a1d7b470c59a49000000000000000000000000255ec453f14ed7ba3d7bebf9f253e17778b6adf3000000000000000000000000000000000000000000000001158e460913d00000000000000000000000000000218ffd3555a754f4d628d83c9813565abf6d59af",
        "nonce": "0xa",
        "chainId": "0x2105"
      },
      "additionalContracts": [],
      "isFixedGasLimit": false
    }
  ],
  "receipts": [
    {
      "status": "0x1",
      "cumulativeGasUsed": "0x282788a",
      "logs": [
        {
          "address": "0x218ffd3555a754f4d628d83c9813565abf6d59af",
          "topics": [
            "0x8c5be1e5ebec7d5bd14f71427d1e84f3dd0314c0f7b2291e5b200ac8c7c3b925",
            "0x000000000000000000000000255ec453f14ed7ba3d7bebf9f253e17778b6adf3",
            "0x00000000000000000000000099b7abe1b7a8c7bdc45d1d4b66826bc94086e57f"
          ],
          "data": "0x000000000000000000000000000000000000000000000001158e460913d00000",
          "blockHash": "0xfd8393a9b2b87264b7b50daa7bf3880a0afb549e3248f1e67aa70e381ba54beb",
          "blockNumber": "0x1e58266",
          "blockTimestamp": "0x685561af",
          "transactionHash": "0x52eba536905e24fbd6e2edb035d85b15d443dcb459d93891c2eb2e0c49ea2b9a",
          "transactionIndex": "0xc3",
          "logIndex": "0x1f1",
          "removed": false
        }
      ],
      "logsBloom": "0x40000000000000000000000000000000000000000000020000000000000000000000000000000000000000000000000000000000000000000000000000200000000000000000000000000000000000000000000000000000000000000000000000000000000000000000000000000000000000000000000000000080000000000000000000000000000000000000000000000000000000000000000000000010020000000000000000000080000000000000000000102000000000000000000000000000000000000000000000000000000000000000000000000000000000000010000000000000000000000000000000000000000008000000000000000010",
      "type": "0x2",
      "transactionHash": "0x52eba536905e24fbd6e2edb035d85b15d443dcb459d93891c2eb2e0c49ea2b9a",
      "transactionIndex": "0xc3",
      "blockHash": "0xfd8393a9b2b87264b7b50daa7bf3880a0afb549e3248f1e67aa70e381ba54beb",
      "blockNumber": "0x1e58266",
      "gasUsed": "0xb773",
      "effectiveGasPrice": "0x1aaf69",
      "from": "0x255ec453f14ed7ba3d7bebf9f253e17778b6adf3",
      "to": "0x218ffd3555a754f4d628d83c9813565abf6d59af",
      "contractAddress": null,
      "l1BaseFeeScalar": "0x8dd",
      "l1BlobBaseFee": "0x1",
      "l1BlobBaseFeeScalar": "0x101c12",
      "l1Fee": "0x173de3799",
      "l1GasPrice": "0x666e83a3",
      "l1GasUsed": "0x640"
    },
    {
      "status": "0x1",
      "cumulativeGasUsed": "0x28664ac",
      "logs": [
        {
          "address": "0x218ffd3555a754f4d628d83c9813565abf6d59af",
          "topics": [
            "0xddf252ad1be2c89b69c2b068fc378daa952ba7f163c4a11628f55a4df523b3ef",
            "0x000000000000000000000000255ec453f14ed7ba3d7bebf9f253e17778b6adf3",
            "0x00000000000000000000000099b7abe1b7a8c7bdc45d1d4b66826bc94086e57f"
          ],
          "data": "0x000000000000000000000000000000000000000000000001158e460913d00000",
          "blockHash": "0xfd8393a9b2b87264b7b50daa7bf3880a0afb549e3248f1e67aa70e381ba54beb",
          "blockNumber": "0x1e58266",
          "blockTimestamp": "0x685561af",
          "transactionHash": "0xb9d97a934613ef7f2af7230444620e6fa6f4d6e242031dca5bde4f6b2cba6121",
          "transactionIndex": "0xc4",
          "logIndex": "0x1f2",
          "removed": false
        },
        {
          "address": "0x218ffd3555a754f4d628d83c9813565abf6d59af",
          "topics": [
            "0x8c5be1e5ebec7d5bd14f71427d1e84f3dd0314c0f7b2291e5b200ac8c7c3b925",
            "0x00000000000000000000000099b7abe1b7a8c7bdc45d1d4b66826bc94086e57f",
            "0x0000000000000000000000008d2de8d2f73f1f4cab472ac9a881c9b123c79627"
          ],
          "data": "0x000000000000000000000000000000000000000000000001158e460913d00000",
          "blockHash": "0xfd8393a9b2b87264b7b50daa7bf3880a0afb549e3248f1e67aa70e381ba54beb",
          "blockNumber": "0x1e58266",
          "blockTimestamp": "0x685561af",
          "transactionHash": "0xb9d97a934613ef7f2af7230444620e6fa6f4d6e242031dca5bde4f6b2cba6121",
          "transactionIndex": "0xc4",
          "logIndex": "0x1f3",
          "removed": false
        },
        {
          "address": "0x218ffd3555a754f4d628d83c9813565abf6d59af",
          "topics": [
            "0xddf252ad1be2c89b69c2b068fc378daa952ba7f163c4a11628f55a4df523b3ef",
            "0x00000000000000000000000099b7abe1b7a8c7bdc45d1d4b66826bc94086e57f",
            "0x0000000000000000000000008d2de8d2f73f1f4cab472ac9a881c9b123c79627"
          ],
          "data": "0x000000000000000000000000000000000000000000000001158e460913d00000",
          "blockHash": "0xfd8393a9b2b87264b7b50daa7bf3880a0afb549e3248f1e67aa70e381ba54beb",
          "blockNumber": "0x1e58266",
          "blockTimestamp": "0x685561af",
          "transactionHash": "0xb9d97a934613ef7f2af7230444620e6fa6f4d6e242031dca5bde4f6b2cba6121",
          "transactionIndex": "0xc4",
          "logIndex": "0x1f4",
          "removed": false
        },
        {
          "address": "0xbebdb6c8ddc678ffa9f8748f85c815c556dd8ac6",
          "topics": [
            "0x6eb224fb001ed210e379b335e35efe88672a8ce935d981a6896b27ffdf52a3b2",
            "0x0000000000000000000000008d2de8d2f73f1f4cab472ac9a881c9b123c79627"
          ],
          "data": "0x000000000000000000000000000000000000000000000000000000000002f7240000000000000000000000000000000000000000000000000000000000000000000000000000000000000000000000000000000000000000000000000000008000000000000000000000000000000000000000000000000000000000000000010000000000000000000000000000000000000000000000000000000000000085030000000000000000000000000000000000000000000000000000000077359400000000000000000000000000218ffd3555a754f4d628d83c9813565abf6d59af001e0000000000000000000000001dd995b941dca469952720dda9a1d7b470c59a49001700000000000000000000000099b7abe1b7a8c7bdc45d1d4b66826bc94086e57f000000000000000000000000000000000000000000000000000000",
          "blockHash": "0xfd8393a9b2b87264b7b50daa7bf3880a0afb549e3248f1e67aa70e381ba54beb",
          "blockNumber": "0x1e58266",
          "blockTimestamp": "0x685561af",
          "transactionHash": "0xb9d97a934613ef7f2af7230444620e6fa6f4d6e242031dca5bde4f6b2cba6121",
          "transactionIndex": "0xc4",
          "logIndex": "0x1f5",
          "removed": false
        },
        {
          "address": "0xbebdb6c8ddc678ffa9f8748f85c815c556dd8ac6",
          "topics": [
            "0x6eb224fb001ed210e379b335e35efe88672a8ce935d981a6896b27ffdf52a3b2",
            "0x000000000000000000000000706f82e9bb5b0813501714ab5974216704980e31"
          ],
          "data": "0x00000000000000000000000000000000000000000000000000000000000318e900000000000000000000000000000000000000000000000000000000000000000000000000000000000000000000000000000000000000000000000000000080000000000000000000000000000000000000000000000000000000000000000f00000000000000000000000000000000000000000000000000000000000001990100170000000000000000000000001dd995b941dca469952720dda9a1d7b470c59a4900000020000000000000000000000000255ec453f14ed7ba3d7bebf9f253e17778b6adf30000000000000000000000000000000000000000000000000000000000000000000000000000000000000000000000000000000000000000000000000000000000000060000000000000000000000000000000000000000000000000000000000000000000000000000000000000000000000000000000000000000000000000000f42400000000000000000000000000000000000000000000000000000000000117049001700000000000000000000000000000000000000000000000000000000000000000000000000000000000000007a0a53847776f7e94cc35742971acb2217b0db8100000000000000000000000070b4a48f482956983d8c69d3ae18fe229888638d00000000000000000000000099b7abe1b7a8c7bdc45d1d4b66826bc94086e57f0101001e0000000000000000000000008d2de8d2f73f1f4cab472ac9a881c9b123c79627000000000002f72400000000000000",
          "blockHash": "0xfd8393a9b2b87264b7b50daa7bf3880a0afb549e3248f1e67aa70e381ba54beb",
          "blockNumber": "0x1e58266",
          "blockTimestamp": "0x685561af",
          "transactionHash": "0xb9d97a934613ef7f2af7230444620e6fa6f4d6e242031dca5bde4f6b2cba6121",
          "transactionIndex": "0xc4",
          "logIndex": "0x1f6",
          "removed": false
        },
        {
          "address": "0x706f82e9bb5b0813501714ab5974216704980e31",
          "topics": [
            "0xda8540426b64ece7b164a9dce95448765f0a7263ef3ff85091c9c7361e485364",
            "0x00000000000000000000000000000000000000000000000000000000000318e9"
          ],
          "data": "0x000000000000000000000000000000000000000000000000000053e507c04fa00000000000000000000000000000000000000000000000000000000000000000",
          "blockHash": "0xfd8393a9b2b87264b7b50daa7bf3880a0afb549e3248f1e67aa70e381ba54beb",
          "blockNumber": "0x1e58266",
          "blockTimestamp": "0x685561af",
          "transactionHash": "0xb9d97a934613ef7f2af7230444620e6fa6f4d6e242031dca5bde4f6b2cba6121",
          "transactionIndex": "0xc4",
          "logIndex": "0x1f7",
          "removed": false
        }
      ],
      "logsBloom": "0x40000000000100000000000000000000000000800000020000000000000020000010000000000000000000000000000000000000800048000000080000200000000000000000000000000008000000000000000000000080000000000000000000000000000000000000000000000004000000800000000004000090000000000000000000000000000400000100000000000000000000000000002000080010020000000400000000000080000000000000000000102000000000000000000000000002200000000000000000000000000000000001000000000000000000000010080100000000000000000000000000000000000008000000000000000010",
      "type": "0x2",
      "transactionHash": "0xb9d97a934613ef7f2af7230444620e6fa6f4d6e242031dca5bde4f6b2cba6121",
      "transactionIndex": "0xc4",
      "blockHash": "0xfd8393a9b2b87264b7b50daa7bf3880a0afb549e3248f1e67aa70e381ba54beb",
      "blockNumber": "0x1e58266",
      "gasUsed": "0x3ec22",
      "effectiveGasPrice": "0x1aaf69",
      "from": "0x255ec453f14ed7ba3d7bebf9f253e17778b6adf3",
      "to": "0x99b7abe1b7a8c7bdc45d1d4b66826bc94086e57f",
      "contractAddress": null,
      "l1BaseFeeScalar": "0x8dd",
      "l1BlobBaseFee": "0x1",
      "l1BlobBaseFeeScalar": "0x101c12",
      "l1Fee": "0x20ae036ca",
      "l1GasPrice": "0x666e83a3",
      "l1GasUsed": "0x8c9"
    }
  ],
  "libraries": [],
  "pending": [],
  "returns": {},
  "timestamp": 1750426032,
  "chain": 8453,
  "commit": "261220f"
}