{
  "transactions": [
    {
      "hash": "0x07389098c3dca7d342158186f4426a926e6f43c0b0f524772f31c311ef42a284",
      "transactionType": "CALL",
      "contractName": null,
      "contractAddress": "0x218ffd3555a754f4d628d83c9813565abf6d59af",
      "function": "approve(address,uint256)",
      "arguments": [
        "0x99B7ABE1B7A8c7BDc45D1d4B66826Bc94086E57F",
        "20000000000000000000"
      ],
      "transaction": {
        "from": "0x255ec453f14ed7ba3d7bebf9f253e17778b6adf3",
        "to": "0x218ffd3555a754f4d628d83c9813565abf6d59af",
        "gas": "0x10c4a",
        "value": "0x0",
        "input": "0x095ea7b300000000000000000000000099b7abe1b7a8c7bdc45d1d4b66826bc94086e57f000000000000000000000000000000000000000000000001158e460913d00000",
        "nonce": "0x6",
        "chainId": "0x2105"
      },
      "additionalContracts": [],
      "isFixedGasLimit": false
    },
    {
      "hash": "0x1456973a6da32e8963afb0b49939f20cd686ea24a982e4b9a74369359461c908",
      "transactionType": "CALL",
      "contractName": null,
      "contractAddress": "0x99b7abe1b7a8c7bdc45d1d4b66826bc94086e57f",
      "function": "sendCrossChainDeposit(uint16,address,address,uint256,address)",
      "arguments": [
        "23",
        "0x1Dd995B941dCa469952720dDA9A1D7b470C59A49",
        "0x255eC453F14Ed7ba3d7BEbF9F253E17778b6ADF3",
        "20000000000000000000",
        "0x218Ffd3555a754F4D628D83C9813565aBF6D59aF"
      ],
      "transaction": {
        "from": "0x255ec453f14ed7ba3d7bebf9f253e17778b6adf3",
        "to": "0x99b7abe1b7a8c7bdc45d1d4b66826bc94086e57f",
        "gas": "0x5a11f",
        "value": "0x53e507c04fa0",
        "input": "0x8d3ea48900000000000000000000000000000000000000000000000000000000000000170000000000000000000000001dd995b941dca469952720dda9a1d7b470c59a49000000000000000000000000255ec453f14ed7ba3d7bebf9f253e17778b6adf3000000000000000000000000000000000000000000000001158e460913d00000000000000000000000000000218ffd3555a754f4d628d83c9813565abf6d59af",
        "nonce": "0x7",
        "chainId": "0x2105"
      },
      "additionalContracts": [],
      "isFixedGasLimit": false
    }
  ],
  "receipts": [
    {
      "status": "0x1",
      "cumulativeGasUsed": "0x199a1a5",
      "logs": [
        {
          "address": "0x218ffd3555a754f4d628d83c9813565abf6d59af",
          "topics": [
            "0x8c5be1e5ebec7d5bd14f71427d1e84f3dd0314c0f7b2291e5b200ac8c7c3b925",
            "0x000000000000000000000000255ec453f14ed7ba3d7bebf9f253e17778b6adf3",
            "0x00000000000000000000000099b7abe1b7a8c7bdc45d1d4b66826bc94086e57f"
          ],
          "data": "0x000000000000000000000000000000000000000000000001158e460913d00000",
          "blockHash": "0x58aadd981a07b4b4950f788de0095977346f1c78e88e19a9e12a31134f42c6b8",
          "blockNumber": "0x1e57cb5",
          "blockTimestamp": "0x6855564d",
          "transactionHash": "0x07389098c3dca7d342158186f4426a926e6f43c0b0f524772f31c311ef42a284",
          "transactionIndex": "0xcb",
          "logIndex": "0x149",
          "removed": false
        }
      ],
      "logsBloom": "0x40000000000000000000000000000000000000000000020000000000000000000000000000000000000000000000000000000000000000000000000000200000000000000000000000000000000000000000000000000000000000000000000000000000000000000000000000000000000000000000000000000080000000000000000000000000000000000000000000000000000000000000000000000010020000000000000000000080000000000000000000102000000000000000000000000000000000000000000000000000000000000000000000000000000000000010000000000000000000000000000000000000000008000000000000000010",
      "type": "0x2",
      "transactionHash": "0x07389098c3dca7d342158186f4426a926e6f43c0b0f524772f31c311ef42a284",
      "transactionIndex": "0xcb",
      "blockHash": "0x58aadd981a07b4b4950f788de0095977346f1c78e88e19a9e12a31134f42c6b8",
      "blockNumber": "0x1e57cb5",
      "gasUsed": "0xb773",
      "effectiveGasPrice": "0xd8b6a",
      "from": "0x255ec453f14ed7ba3d7bebf9f253e17778b6adf3",
      "to": "0x218ffd3555a754f4d628d83c9813565abf6d59af",
      "contractAddress": null,
      "l1BaseFeeScalar": "0x8dd",
      "l1BlobBaseFee": "0x1",
      "l1BlobBaseFeeScalar": "0x101c12",
      "l1Fee": "0xc7fca01c",
      "l1GasPrice": "0x371632fc",
      "l1GasUsed": "0x640"
    },
    {
      "status": "0x1",
      "cumulativeGasUsed": "0x19d7b07",
      "logs": [
        {
          "address": "0x218ffd3555a754f4d628d83c9813565abf6d59af",
          "topics": [
            "0xddf252ad1be2c89b69c2b068fc378daa952ba7f163c4a11628f55a4df523b3ef",
            "0x000000000000000000000000255ec453f14ed7ba3d7bebf9f253e17778b6adf3",
            "0x00000000000000000000000099b7abe1b7a8c7bdc45d1d4b66826bc94086e57f"
          ],
          "data": "0x000000000000000000000000000000000000000000000001158e460913d00000",
          "blockHash": "0x58aadd981a07b4b4950f788de0095977346f1c78e88e19a9e12a31134f42c6b8",
          "blockNumber": "0x1e57cb5",
          "blockTimestamp": "0x6855564d",
          "transactionHash": "0x1456973a6da32e8963afb0b49939f20cd686ea24a982e4b9a74369359461c908",
          "transactionIndex": "0xcc",
          "logIndex": "0x14a",
          "removed": false
        },
        {
          "address": "0x218ffd3555a754f4d628d83c9813565abf6d59af",
          "topics": [
            "0x8c5be1e5ebec7d5bd14f71427d1e84f3dd0314c0f7b2291e5b200ac8c7c3b925",
            "0x00000000000000000000000099b7abe1b7a8c7bdc45d1d4b66826bc94086e57f",
            "0x0000000000000000000000008d2de8d2f73f1f4cab472ac9a881c9b123c79627"
          ],
          "data": "0x000000000000000000000000000000000000000000000001158e460913d00000",
          "blockHash": "0x58aadd981a07b4b4950f788de0095977346f1c78e88e19a9e12a31134f42c6b8",
          "blockNumber": "0x1e57cb5",
          "blockTimestamp": "0x6855564d",
          "transactionHash": "0x1456973a6da32e8963afb0b49939f20cd686ea24a982e4b9a74369359461c908",
          "transactionIndex": "0xcc",
          "logIndex": "0x14b",
          "removed": false
        },
        {
          "address": "0x218ffd3555a754f4d628d83c9813565abf6d59af",
          "topics": [
            "0xddf252ad1be2c89b69c2b068fc378daa952ba7f163c4a11628f55a4df523b3ef",
            "0x00000000000000000000000099b7abe1b7a8c7bdc45d1d4b66826bc94086e57f",
            "0x0000000000000000000000008d2de8d2f73f1f4cab472ac9a881c9b123c79627"
          ],
          "data": "0x000000000000000000000000000000000000000000000001158e460913d00000",
          "blockHash": "0x58aadd981a07b4b4950f788de0095977346f1c78e88e19a9e12a31134f42c6b8",
          "blockNumber": "0x1e57cb5",
          "blockTimestamp": "0x6855564d",
          "transactionHash": "0x1456973a6da32e8963afb0b49939f20cd686ea24a982e4b9a74369359461c908",
          "transactionIndex": "0xcc",
          "logIndex": "0x14c",
          "removed": false
        },
        {
          "address": "0xbebdb6c8ddc678ffa9f8748f85c815c556dd8ac6",
          "topics": [
            "0x6eb224fb001ed210e379b335e35efe88672a8ce935d981a6896b27ffdf52a3b2",
            "0x0000000000000000000000008d2de8d2f73f1f4cab472ac9a881c9b123c79627"
          ],
          "data": "0x000000000000000000000000000000000000000000000000000000000002f7200000000000000000000000000000000000000000000000000000000000000000000000000000000000000000000000000000000000000000000000000000008000000000000000000000000000000000000000000000000000000000000000010000000000000000000000000000000000000000000000000000000000000085030000000000000000000000000000000000000000000000000000000077359400000000000000000000000000218ffd3555a754f4d628d83c9813565abf6d59af001e0000000000000000000000001dd995b941dca469952720dda9a1d7b470c59a49001700000000000000000000000099b7abe1b7a8c7bdc45d1d4b66826bc94086e57f000000000000000000000000000000000000000000000000000000",
          "blockHash": "0x58aadd981a07b4b4950f788de0095977346f1c78e88e19a9e12a31134f42c6b8",
          "blockNumber": "0x1e57cb5",
          "blockTimestamp": "0x6855564d",
          "transactionHash": "0x1456973a6da32e8963afb0b49939f20cd686ea24a982e4b9a74369359461c908",
          "transactionIndex": "0xcc",
          "logIndex": "0x14d",
          "removed": false
        },
        {
          "address": "0xbebdb6c8ddc678ffa9f8748f85c815c556dd8ac6",
          "topics": [
            "0x6eb224fb001ed210e379b335e35efe88672a8ce935d981a6896b27ffdf52a3b2",
            "0x000000000000000000000000706f82e9bb5b0813501714ab5974216704980e31"
          ],
          "data": "0x00000000000000000000000000000000000000000000000000000000000318df00000000000000000000000000000000000000000000000000000000000000000000000000000000000000000000000000000000000000000000000000000080000000000000000000000000000000000000000000000000000000000000000f00000000000000000000000000000000000000000000000000000000000001990100170000000000000000000000001dd995b941dca469952720dda9a1d7b470c59a4900000020000000000000000000000000255ec453f14ed7ba3d7bebf9f253e17778b6adf30000000000000000000000000000000000000000000000000000000000000000000000000000000000000000000000000000000000000000000000000000000000000060000000000000000000000000000000000000000000000000000000000000000000000000000000000000000000000000000000000000000000000000000f42400000000000000000000000000000000000000000000000000000000000117049001700000000000000000000000000000000000000000000000000000000000000000000000000000000000000007a0a53847776f7e94cc35742971acb2217b0db8100000000000000000000000070b4a48f482956983d8c69d3ae18fe229888638d00000000000000000000000099b7abe1b7a8c7bdc45d1d4b66826bc94086e57f0101001e0000000000000000000000008d2de8d2f73f1f4cab472ac9a881c9b123c79627000000000002f72000000000000000",
          "blockHash": "0x58aadd981a07b4b4950f788de0095977346f1c78e88e19a9e12a31134f42c6b8",
          "blockNumber": "0x1e57cb5",
          "blockTimestamp": "0x6855564d",
          "transactionHash": "0x1456973a6da32e8963afb0b49939f20cd686ea24a982e4b9a74369359461c908",
          "transactionIndex": "0xcc",
          "logIndex": "0x14e",
          "removed": false
        },
        {
          "address": "0x706f82e9bb5b0813501714ab5974216704980e31",
          "topics": [
            "0xda8540426b64ece7b164a9dce95448765f0a7263ef3ff85091c9c7361e485364",
            "0x00000000000000000000000000000000000000000000000000000000000318df"
          ],
          "data": "0x000000000000000000000000000000000000000000000000000053e507c04fa00000000000000000000000000000000000000000000000000000000000000000",
          "blockHash": "0x58aadd981a07b4b4950f788de0095977346f1c78e88e19a9e12a31134f42c6b8",
          "blockNumber": "0x1e57cb5",
          "blockTimestamp": "0x6855564d",
          "transactionHash": "0x1456973a6da32e8963afb0b49939f20cd686ea24a982e4b9a74369359461c908",
          "transactionIndex": "0xcc",
          "logIndex": "0x14f",
          "removed": false
        }
      ],
      "logsBloom": "0x4000000000010000000000000000000000000000000002000000000000000000001000000000000000000000000000000000000080004800000008000020000000000000000000000000000800000000000000000000008000000000000000000000000000000000000000000000000400000080000000000400009000000000000000000000000000040000010000000000000040000000000000000008001002000000040000000000008000000000000000000010200000000000000000000000000220000000000000000000000000000000000100000004000000000000001008010000000000000000000000000000000000000a000000000000000010",
      "type": "0x2",
      "transactionHash": "0x1456973a6da32e8963afb0b49939f20cd686ea24a982e4b9a74369359461c908",
      "transactionIndex": "0xcc",
      "blockHash": "0x58aadd981a07b4b4950f788de0095977346f1c78e88e19a9e12a31134f42c6b8",
      "blockNumber": "0x1e57cb5",
      "gasUsed": "0x3d962",
      "effectiveGasPrice": "0xd8b6a",
      "from": "0x255ec453f14ed7ba3d7bebf9f253e17778b6adf3",
      "to": "0x99b7abe1b7a8c7bdc45d1d4b66826bc94086e57f",
      "contractAddress": null,
      "l1BaseFeeScalar": "0x8dd",
      "l1BlobBaseFee": "0x1",
      "l1BlobBaseFeeScalar": "0x101c12",
      "l1Fee": "0x119327ff8",
      "l1GasPrice": "0x371632fc",
      "l1GasUsed": "0x8c9"
    }
  ],
  "libraries": [],
  "pending": [],
  "returns": {},
  "timestamp": 1750423117,
  "chain": 8453,
  "commit": "261220f"
}