{
  "transactions": [
    {
      "hash": "0xf251c3d128d260af12c6de14df92d7baa6ac1e076ae83931e2c6a62aedde7076",
      "transactionType": "CALL",
      "contractName": null,
      "contractAddress": "0x218ffd3555a754f4d628d83c9813565abf6d59af",
      "function": "approve(address,uint256)",
      "arguments": [
        "0x5A9263d28b7Bb8959Be4FF5bDAb4F855A714F322",
        "80000000000000000000"
      ],
      "transaction": {
        "from": "0x255ec453f14ed7ba3d7bebf9f253e17778b6adf3",
        "to": "0x218ffd3555a754f4d628d83c9813565abf6d59af",
        "gas": "0x10c4a",
        "value": "0x0",
        "input": "0x095ea7b30000000000000000000000005a9263d28b7bb8959be4ff5bdab4f855a714f322000000000000000000000000000000000000000000000004563918244f400000",
        "nonce": "0x2",
        "chainId": "0x2105"
      },
      "additionalContracts": [],
      "isFixedGasLimit": false
    },
    {
      "hash": "0xd06d878dd1ae401016c35204c3259fca4ab7eb89894c52701254698d75352c7a",
      "transactionType": "CALL",
      "contractName": null,
      "contractAddress": "0x5a9263d28b7bb8959be4ff5bdab4f855a714f322",
      "function": "sendCrossChainDeposit(uint16,address,address,uint256,address)",
      "arguments": [
        "23",
        "0x1Dd995B941dCa469952720dDA9A1D7b470C59A49",
        "0x255eC453F14Ed7ba3d7BEbF9F253E17778b6ADF3",
        "80000000000000000000",
        "0x218Ffd3555a754F4D628D83C9813565aBF6D59aF"
      ],
      "transaction": {
        "from": "0x255ec453f14ed7ba3d7bebf9f253e17778b6adf3",
        "to": "0x5a9263d28b7bb8959be4ff5bdab4f855a714f322",
        "gas": "0x6175e",
        "value": "0x52f40cf1a1a0",
        "input": "0x8d3ea48900000000000000000000000000000000000000000000000000000000000000170000000000000000000000001dd995b941dca469952720dda9a1d7b470c59a49000000000000000000000000255ec453f14ed7ba3d7bebf9f253e17778b6adf3000000000000000000000000000000000000000000000004563918244f400000000000000000000000000000218ffd3555a754f4d628d83c9813565abf6d59af",
        "nonce": "0x3",
        "chainId": "0x2105"
      },
      "additionalContracts": [],
      "isFixedGasLimit": false
    }
  ],
  "receipts": [
    {
      "status": "0x1",
      "cumulativeGasUsed": "0x264986c",
      "logs": [
        {
          "address": "0x218ffd3555a754f4d628d83c9813565abf6d59af",
          "topics": [
            "0x8c5be1e5ebec7d5bd14f71427d1e84f3dd0314c0f7b2291e5b200ac8c7c3b925",
            "0x000000000000000000000000255ec453f14ed7ba3d7bebf9f253e17778b6adf3",
            "0x0000000000000000000000005a9263d28b7bb8959be4ff5bdab4f855a714f322"
          ],
          "data": "0x000000000000000000000000000000000000000000000004563918244f400000",
          "blockHash": "0x7ad43439d5c6b3ddedd1055d2b4a35996e114afc968eafc40554e4f8b2c88f3b",
          "blockNumber": "0x1e5770e",
          "blockTimestamp": "0x68554aff",
          "transactionHash": "0xf251c3d128d260af12c6de14df92d7baa6ac1e076ae83931e2c6a62aedde7076",
          "transactionIndex": "0xf7",
          "logIndex": "0x474",
          "removed": false
        }
      ],
      "logsBloom": "0x40000000000000000000000000000000000000000000020000000000000000001000000000000000000000000000000000000000000000000000000000200000000000000000000000000000000000000000000000000000000000000000000000000000000000000000020000000000000000000000000000000080000000000000000000000000000000000000000000000000000000000000000000000010020000000000000000000080000000000000000000100000000000000000000000000000000000000000000000000000000000000000008000000000000000000010000000000000000000000000000000000000000000000000000000000000",
      "type": "0x2",
      "transactionHash": "0xf251c3d128d260af12c6de14df92d7baa6ac1e076ae83931e2c6a62aedde7076",
      "transactionIndex": "0xf7",
      "blockHash": "0x7ad43439d5c6b3ddedd1055d2b4a35996e114afc968eafc40554e4f8b2c88f3b",
      "blockNumber": "0x1e5770e",
      "gasUsed": "0xb773",
      "effectiveGasPrice": "0xf703f",
      "from": "0x255ec453f14ed7ba3d7bebf9f253e17778b6adf3",
      "to": "0x218ffd3555a754f4d628d83c9813565abf6d59af",
      "contractAddress": null,
      "l1BaseFeeScalar": "0x8dd",
      "l1BlobBaseFee": "0x1",
      "l1BlobBaseFeeScalar": "0x101c12",
      "l1Fee": "0x4e12c4c1",
      "l1GasPrice": "0x158163c7",
      "l1GasUsed": "0x640"
    },
    {
      "status": "0x1",
      "cumulativeGasUsed": "0x2d1e932",
      "logs": [
        {
          "address": "0x218ffd3555a754f4d628d83c9813565abf6d59af",
          "topics": [
            "0xddf252ad1be2c89b69c2b068fc378daa952ba7f163c4a11628f55a4df523b3ef",
            "0x000000000000000000000000255ec453f14ed7ba3d7bebf9f253e17778b6adf3",
            "0x0000000000000000000000005a9263d28b7bb8959be4ff5bdab4f855a714f322"
          ],
          "data": "0x000000000000000000000000000000000000000000000004563918244f400000",
          "blockHash": "0x5eeec34f5610dd1c1694cacecbaa862d1ba53d61f35f00bed05902eeb90bb059",
          "blockNumber": "0x1e5770f",
          "blockTimestamp": "0x68554b01",
          "transactionHash": "0xd06d878dd1ae401016c35204c3259fca4ab7eb89894c52701254698d75352c7a",
          "transactionIndex": "0x113",
          "logIndex": "0x305",
          "removed": false
        },
        {
          "address": "0x218ffd3555a754f4d628d83c9813565abf6d59af",
          "topics": [
            "0x8c5be1e5ebec7d5bd14f71427d1e84f3dd0314c0f7b2291e5b200ac8c7c3b925",
            "0x0000000000000000000000005a9263d28b7bb8959be4ff5bdab4f855a714f322",
            "0x0000000000000000000000008d2de8d2f73f1f4cab472ac9a881c9b123c79627"
          ],
          "data": "0x000000000000000000000000000000000000000000000004563918244f400000",
          "blockHash": "0x5eeec34f5610dd1c1694cacecbaa862d1ba53d61f35f00bed05902eeb90bb059",
          "blockNumber": "0x1e5770f",
          "blockTimestamp": "0x68554b01",
          "transactionHash": "0xd06d878dd1ae401016c35204c3259fca4ab7eb89894c52701254698d75352c7a",
          "transactionIndex": "0x113",
          "logIndex": "0x306",
          "removed": false
        },
        {
          "address": "0x218ffd3555a754f4d628d83c9813565abf6d59af",
          "topics": [
            "0xddf252ad1be2c89b69c2b068fc378daa952ba7f163c4a11628f55a4df523b3ef",
            "0x0000000000000000000000005a9263d28b7bb8959be4ff5bdab4f855a714f322",
            "0x0000000000000000000000008d2de8d2f73f1f4cab472ac9a881c9b123c79627"
          ],
          "data": "0x000000000000000000000000000000000000000000000004563918244f400000",
          "blockHash": "0x5eeec34f5610dd1c1694cacecbaa862d1ba53d61f35f00bed05902eeb90bb059",
          "blockNumber": "0x1e5770f",
          "blockTimestamp": "0x68554b01",
          "transactionHash": "0xd06d878dd1ae401016c35204c3259fca4ab7eb89894c52701254698d75352c7a",
          "transactionIndex": "0x113",
          "logIndex": "0x307",
          "removed": false
        },
        {
          "address": "0xbebdb6c8ddc678ffa9f8748f85c815c556dd8ac6",
          "topics": [
            "0x6eb224fb001ed210e379b335e35efe88672a8ce935d981a6896b27ffdf52a3b2",
            "0x0000000000000000000000008d2de8d2f73f1f4cab472ac9a881c9b123c79627"
          ],
          "data": "0x000000000000000000000000000000000000000000000000000000000002f71c00000000000000000000000000000000000000000000000000000000000000000000000000000000000000000000000000000000000000000000000000000080000000000000000000000000000000000000000000000000000000000000000100000000000000000000000000000000000000000000000000000000000000850300000000000000000000000000000000000000000000000000000001dcd65000000000000000000000000000218ffd3555a754f4d628d83c9813565abf6d59af001e0000000000000000000000001dd995b941dca469952720dda9a1d7b470c59a4900170000000000000000000000005a9263d28b7bb8959be4ff5bdab4f855a714f322000000000000000000000000000000000000000000000000000000",
          "blockHash": "0x5eeec34f5610dd1c1694cacecbaa862d1ba53d61f35f00bed05902eeb90bb059",
          "blockNumber": "0x1e5770f",
          "blockTimestamp": "0x68554b01",
          "transactionHash": "0xd06d878dd1ae401016c35204c3259fca4ab7eb89894c52701254698d75352c7a",
          "transactionIndex": "0x113",
          "logIndex": "0x308",
          "removed": false
        },
        {
          "address": "0xbebdb6c8ddc678ffa9f8748f85c815c556dd8ac6",
          "topics": [
            "0x6eb224fb001ed210e379b335e35efe88672a8ce935d981a6896b27ffdf52a3b2",
            "0x000000000000000000000000706f82e9bb5b0813501714ab5974216704980e31"
          ],
          "data": "0x00000000000000000000000000000000000000000000000000000000000318d600000000000000000000000000000000000000000000000000000000000000000000000000000000000000000000000000000000000000000000000000000080000000000000000000000000000000000000000000000000000000000000000f00000000000000000000000000000000000000000000000000000000000001990100170000000000000000000000001dd995b941dca469952720dda9a1d7b470c59a4900000020000000000000000000000000255ec453f14ed7ba3d7bebf9f253e17778b6adf300000000000000000000000000000000000000000000000000000000000000000000000000000000000000000000000000000000000000000000000000000000000000600000000000000000000000000000000000000000000000000000000000000000000000000000000000000000000000000000000000000000000000000003d0900000000000000000000000000000000000000000000000000000000000117049001700000000000000000000000000000000000000000000000000000000000000000000000000000000000000007a0a53847776f7e94cc35742971acb2217b0db8100000000000000000000000070b4a48f482956983d8c69d3ae18fe229888638d0000000000000000000000005a9263d28b7bb8959be4ff5bdab4f855a714f3220101001e0000000000000000000000008d2de8d2f73f1f4cab472ac9a881c9b123c79627000000000002f71c00000000000000",
          "blockHash": "0x5eeec34f5610dd1c1694cacecbaa862d1ba53d61f35f00bed05902eeb90bb059",
          "blockNumber": "0x1e5770f",
          "blockTimestamp": "0x68554b01",
          "transactionHash": "0xd06d878dd1ae401016c35204c3259fca4ab7eb89894c52701254698d75352c7a",
          "transactionIndex": "0x113",
          "logIndex": "0x309",
          "removed": false
        },
        {
          "address": "0x706f82e9bb5b0813501714ab5974216704980e31",
          "topics": [
            "0xda8540426b64ece7b164a9dce95448765f0a7263ef3ff85091c9c7361e485364",
            "0x00000000000000000000000000000000000000000000000000000000000318d6"
          ],
          "data": "0x000000000000000000000000000000000000000000000000000052f40cf1a1a00000000000000000000000000000000000000000000000000000000000000000",
          "blockHash": "0x5eeec34f5610dd1c1694cacecbaa862d1ba53d61f35f00bed05902eeb90bb059",
          "blockNumber": "0x1e5770f",
          "blockTimestamp": "0x68554b01",
          "transactionHash": "0xd06d878dd1ae401016c35204c3259fca4ab7eb89894c52701254698d75352c7a",
          "transactionIndex": "0x113",
          "logIndex": "0x30a",
          "removed": false
        }
      ],
      "logsBloom": "0x40000000000100000000000002000000000000000000020000000000000000001010000000000000000000000000000000000000800048000000080000200000000000000000000000000008000000000000000000000080000000000000000000000000000000000000020000000004000000800000000004000090000000000000000000000000000400000100000000000000000000000000000000080010020000000400000000000080000020000000000000100000000000000000000000000002200000000000000000000000000000000001008000000000000000000010080100000200000000000000000000000000000000000000000000000000",
      "type": "0x2",
      "transactionHash": "0xd06d878dd1ae401016c35204c3259fca4ab7eb89894c52701254698d75352c7a",
      "transactionIndex": "0x113",
      "blockHash": "0x5eeec34f5610dd1c1694cacecbaa862d1ba53d61f35f00bed05902eeb90bb059",
      "blockNumber": "0x1e5770f",
      "gasUsed": "0x468f5",
      "effectiveGasPrice": "0xf76c6",
      "from": "0x255ec453f14ed7ba3d7bebf9f253e17778b6adf3",
      "to": "0x5a9263d28b7bb8959be4ff5bdab4f855a714f322",
      "contractAddress": null,
      "l1BaseFeeScalar": "0x8dd",
      "l1BlobBaseFee": "0x1",
      "l1BlobBaseFeeScalar": "0x101c12",
      "l1Fee": "0x6dc6f9bf",
      "l1GasPrice": "0x158163c7",
      "l1GasUsed": "0x8c9"
    }
  ],
  "libraries": [],
  "pending": [],
  "returns": {},
  "timestamp": 1750420224,
  "chain": 8453,
  "commit": "261220f"
}