{
  "transactions": [
    {
      "hash": "0xc23e99feacaa6a9b6f923d7dc2e4f6dd4b80d4724825ea73e5eaaffec571d30f",
      "transactionType": "CALL",
      "contractName": null,
      "contractAddress": "0x8a0a6fd7f40ee7c6eb00666cf08f45996018fb19",
      "function": "setRegisteredSender(uint16,bytes32)",
      "arguments": [
        "23",
        "0x000000000000000000000000166bfbffe3a3be8b3d24c8d948b721a7afe41f72"
      ],
      "transaction": {
        "from": "0xe2f215bbd5c214ac79bb1315d05117673c1a7d7e",
        "to": "0x8a0a6fd7f40ee7c6eb00666cf08f45996018fb19",
        "gas": "0x10a22",
        "value": "0x0",
        "input": "0xdd12d68b0000000000000000000000000000000000000000000000000000000000000017000000000000000000000000166bfbffe3a3be8b3d24c8d948b721a7afe41f72",
        "nonce": "0xf8",
        "chainId": "0x2105"
      },
      "additionalContracts": [],
      "isFixedGasLimit": false
    }
  ],
  "receipts": [
    {
      "status": "0x1",
      "cumulativeGasUsed": "0x2d7c2ec",
      "logs": [],
      "logsBloom": "0x00000000000000000000000000000000000000000000000000000000000000000000000000000000000000000000000000000000000000000000000000000000000000000000000000000000000000000000000000000000000000000000000000000000000000000000000000000000000000000000000000000000000000000000000000000000000000000000000000000000000000000000000000000000000000000000000000000000000000000000000000000000000000000000000000000000000000000000000000000000000000000000000000000000000000000000000000000000000000000000000000000000000000000000000000000000",
      "type": "0x2",
      "transactionHash": "0xc23e99feacaa6a9b6f923d7dc2e4f6dd4b80d4724825ea73e5eaaffec571d30f",
      "transactionIndex": "0x125",
      "blockHash": "0x11551e534a5f7e5835fdcbbac6a48da0b880f0a58820f950a2e19b1556cb3b8c",
      "blockNumber": "0x1e2be15",
      "gasUsed": "0xb5f9",
      "effectiveGasPrice": "0x943b6",
      "from": "0xe2f215bbd5c214ac79bb1315d05117673c1a7d7e",
      "to": "0x8a0a6fd7f40ee7c6eb00666cf08f45996018fb19",
      "contractAddress": null,
      "l1BaseFeeScalar": "0x8dd",
      "l1BlobBaseFee": "0x1",
      "l1BlobBaseFeeScalar": "0x101c12",
      "l1Fee": "0xd27121c0",
      "l1GasPrice": "0x39f77290",
      "l1GasUsed": "0x640"
    }
  ],
  "libraries": [],
  "pending": [],
  "returns": {},
  "timestamp": 1750063373,
  "chain": 8453,
  "commit": "261220f"
}