{
  "transactions": [
    {
      "hash": "0xe68367eefa09f66995325b304505183310fbbd0428f0eaf1fec2a04d4bf6257e",
      "transactionType": "CALL",
      "contractName": null,
      "contractAddress": "0x6fea2f1b82afc40030520a6c49b0d3b652a65915",
      "function": "approve(address,uint256)",
      "arguments": [
        "0xa4BBD9659b899f0f90326334753ED7d510Da8f20",
        "100000000"
      ],
      "transaction": {
        "from": "0x255ec453f14ed7ba3d7bebf9f253e17778b6adf3",
        "to": "0x6fea2f1b82afc40030520a6c49b0d3b652a65915",
        "gas": "0x100e3",
        "value": "0x0",
        "input": "0x095ea7b3000000000000000000000000a4bbd9659b899f0f90326334753ed7d510da8f200000000000000000000000000000000000000000000000000000000005f5e100",
        "nonce": "0x188",
        "chainId": "0xaa36a7"
      },
      "additionalContracts": [],
      "isFixedGasLimit": false
    },
    {
      "hash": "0xf1ff86a97b3ffc2433480e1dcd5ebf2aa84afa327564ad51bc665993cd55e1bd",
      "transactionType": "CALL",
      "contractName": null,
      "contractAddress": "0xa4bbd9659b899f0f90326334753ed7d510da8f20",
      "function": "sendCrossChainDeposit(uint16,address,address,uint256,address)",
      "arguments": [
        "10004",
        "0x8858D5918329FCd3DaB7b6a13f940E08a52B8f4e",
        "0x8858D5918329FCd3DaB7b6a13f940E08a52B8f4e",
        "100000000",
        "0x6fEA2f1b82aFC40030520a6C49B0d3b652A65915"
      ],
      "transaction": {
        "from": "0x255ec453f14ed7ba3d7bebf9f253e17778b6adf3",
        "to": "0xa4bbd9659b899f0f90326334753ed7d510da8f20",
        "gas": "0x5e83d",
        "value": "0x3ff2e795f50000",
        "input": "0x8d3ea48900000000000000000000000000000000000000000000000000000000000027140000000000000000000000008858d5918329fcd3dab7b6a13f940e08a52b8f4e0000000000000000000000008858d5918329fcd3dab7b6a13f940e08a52b8f4e0000000000000000000000000000000000000000000000000000000005f5e1000000000000000000000000006fea2f1b82afc40030520a6c49b0d3b652a65915",
        "nonce": "0x189",
        "chainId": "0xaa36a7"
      },
      "additionalContracts": [],
      "isFixedGasLimit": false
    }
  ],
  "receipts": [
    {
      "status": "0x1",
      "cumulativeGasUsed": "0xa74fc2",
      "logs": [
        {
          "address": "0x6fea2f1b82afc40030520a6c49b0d3b652a65915",
          "topics": [
            "0x8c5be1e5ebec7d5bd14f71427d1e84f3dd0314c0f7b2291e5b200ac8c7c3b925",
            "0x000000000000000000000000255ec453f14ed7ba3d7bebf9f253e17778b6adf3",
            "0x000000000000000000000000a4bbd9659b899f0f90326334753ed7d510da8f20"
          ],
          "data": "0x0000000000000000000000000000000000000000000000000000000005f5e100",
          "blockHash": "0xf950cb96f49d45187989b15b74485b09a19682cca185daa445252b7ba75ce6f6",
          "blockNumber": "0x810681",
          "transactionHash": "0xe68367eefa09f66995325b304505183310fbbd0428f0eaf1fec2a04d4bf6257e",
          "transactionIndex": "0x59",
          "logIndex": "0x95",
          "removed": false
        }
      ],
      "logsBloom": "0x00000000000000000000000000000000000000000000020000000010000000000000000000004000000000000000000000000000000000000000000000200000000000000000000000000000000000000000000000000000000000000000000000000000000000000000008000000000000000000000000000000080000400000000000000000000000000000000000000000000000000000000000000000000020000000000000000000080000000000000000000000000000000000000000000000000000000000000000000000100000000000000000000000000000010000010000000000000000000000000000000000000000000000000000000000000",
      "type": "0x2",
      "transactionHash": "0xe68367eefa09f66995325b304505183310fbbd0428f0eaf1fec2a04d4bf6257e",
      "transactionIndex": "0x59",
      "blockHash": "0xf950cb96f49d45187989b15b74485b09a19682cca185daa445252b7ba75ce6f6",
      "blockNumber": "0x810681",
      "gasUsed": "0xb9fc",
      "effectiveGasPrice": "0xf424b",
      "from": "0x255ec453f14ed7ba3d7bebf9f253e17778b6adf3",
      "to": "0x6fea2f1b82afc40030520a6c49b0d3b652a65915",
      "contractAddress": null
    },
    {
      "status": "0x1",
      "cumulativeGasUsed": "0xab59c5",
      "logs": [
        {
          "address": "0x6fea2f1b82afc40030520a6c49b0d3b652a65915",
          "topics": [
            "0xddf252ad1be2c89b69c2b068fc378daa952ba7f163c4a11628f55a4df523b3ef",
            "0x000000000000000000000000255ec453f14ed7ba3d7bebf9f253e17778b6adf3",
            "0x000000000000000000000000a4bbd9659b899f0f90326334753ed7d510da8f20"
          ],
          "data": "0x0000000000000000000000000000000000000000000000000000000005f5e100",
          "blockHash": "0xf950cb96f49d45187989b15b74485b09a19682cca185daa445252b7ba75ce6f6",
          "blockNumber": "0x810681",
          "transactionHash": "0xf1ff86a97b3ffc2433480e1dcd5ebf2aa84afa327564ad51bc665993cd55e1bd",
          "transactionIndex": "0x5a",
          "logIndex": "0x96",
          "removed": false
        },
        {
          "address": "0x6fea2f1b82afc40030520a6c49b0d3b652a65915",
          "topics": [
            "0x8c5be1e5ebec7d5bd14f71427d1e84f3dd0314c0f7b2291e5b200ac8c7c3b925",
            "0x000000000000000000000000255ec453f14ed7ba3d7bebf9f253e17778b6adf3",
            "0x000000000000000000000000a4bbd9659b899f0f90326334753ed7d510da8f20"
          ],
          "data": "0x0000000000000000000000000000000000000000000000000000000000000000",
          "blockHash": "0xf950cb96f49d45187989b15b74485b09a19682cca185daa445252b7ba75ce6f6",
          "blockNumber": "0x810681",
          "transactionHash": "0xf1ff86a97b3ffc2433480e1dcd5ebf2aa84afa327564ad51bc665993cd55e1bd",
          "transactionIndex": "0x5a",
          "logIndex": "0x97",
          "removed": false
        },
        {
          "address": "0x6fea2f1b82afc40030520a6c49b0d3b652a65915",
          "topics": [
            "0x8c5be1e5ebec7d5bd14f71427d1e84f3dd0314c0f7b2291e5b200ac8c7c3b925",
            "0x000000000000000000000000a4bbd9659b899f0f90326334753ed7d510da8f20",
            "0x000000000000000000000000db5492265f6038831e89f495670ff909ade94bd9"
          ],
          "data": "0x0000000000000000000000000000000000000000000000000000000005f5e100",
          "blockHash": "0xf950cb96f49d45187989b15b74485b09a19682cca185daa445252b7ba75ce6f6",
          "blockNumber": "0x810681",
          "transactionHash": "0xf1ff86a97b3ffc2433480e1dcd5ebf2aa84afa327564ad51bc665993cd55e1bd",
          "transactionIndex": "0x5a",
          "logIndex": "0x98",
          "removed": false
        },
        {
          "address": "0x6fea2f1b82afc40030520a6c49b0d3b652a65915",
          "topics": [
            "0xddf252ad1be2c89b69c2b068fc378daa952ba7f163c4a11628f55a4df523b3ef",
            "0x000000000000000000000000a4bbd9659b899f0f90326334753ed7d510da8f20",
            "0x000000000000000000000000db5492265f6038831e89f495670ff909ade94bd9"
          ],
          "data": "0x0000000000000000000000000000000000000000000000000000000005f5e100",
          "blockHash": "0xf950cb96f49d45187989b15b74485b09a19682cca185daa445252b7ba75ce6f6",
          "blockNumber": "0x810681",
          "transactionHash": "0xf1ff86a97b3ffc2433480e1dcd5ebf2aa84afa327564ad51bc665993cd55e1bd",
          "transactionIndex": "0x5a",
          "logIndex": "0x99",
          "removed": false
        },
        {
          "address": "0x6fea2f1b82afc40030520a6c49b0d3b652a65915",
          "topics": [
            "0x8c5be1e5ebec7d5bd14f71427d1e84f3dd0314c0f7b2291e5b200ac8c7c3b925",
            "0x000000000000000000000000a4bbd9659b899f0f90326334753ed7d510da8f20",
            "0x000000000000000000000000db5492265f6038831e89f495670ff909ade94bd9"
          ],
          "data": "0x0000000000000000000000000000000000000000000000000000000000000000",
          "blockHash": "0xf950cb96f49d45187989b15b74485b09a19682cca185daa445252b7ba75ce6f6",
          "blockNumber": "0x810681",
          "transactionHash": "0xf1ff86a97b3ffc2433480e1dcd5ebf2aa84afa327564ad51bc665993cd55e1bd",
          "transactionIndex": "0x5a",
          "logIndex": "0x9a",
          "removed": false
        },
        {
          "address": "0x4a8bc80ed5a4067f1ccf107057b8270e0cc11a78",
          "topics": [
            "0x6eb224fb001ed210e379b335e35efe88672a8ce935d981a6896b27ffdf52a3b2",
            "0x000000000000000000000000db5492265f6038831e89f495670ff909ade94bd9"
          ],
          "data": "0x000000000000000000000000000000000000000000000000000000000000137d0000000000000000000000000000000000000000000000000000000000000000000000000000000000000000000000000000000000000000000000000000008000000000000000000000000000000000000000000000000000000000000000010000000000000000000000000000000000000000000000000000000000000085030000000000000000000000000000000000000000000000000000000005f5e1000000000000000000000000006fea2f1b82afc40030520a6c49b0d3b652a6591527120000000000000000000000008858d5918329fcd3dab7b6a13f940e08a52b8f4e2714000000000000000000000000a4bbd9659b899f0f90326334753ed7d510da8f20000000000000000000000000000000000000000000000000000000",
          "blockHash": "0xf950cb96f49d45187989b15b74485b09a19682cca185daa445252b7ba75ce6f6",
          "blockNumber": "0x810681",
          "transactionHash": "0xf1ff86a97b3ffc2433480e1dcd5ebf2aa84afa327564ad51bc665993cd55e1bd",
          "transactionIndex": "0x5a",
          "logIndex": "0x9b",
          "removed": false
        },
        {
          "address": "0x4a8bc80ed5a4067f1ccf107057b8270e0cc11a78",
          "topics": [
            "0x6eb224fb001ed210e379b335e35efe88672a8ce935d981a6896b27ffdf52a3b2",
            "0x0000000000000000000000007b1bd7a6b4e61c2a123ac6bc2cbfc614437d0470"
          ],
          "data": "0x00000000000000000000000000000000000000000000000000000000000832d700000000000000000000000000000000000000000000000000000000000000000000000000000000000000000000000000000000000000000000000000000080000000000000000000000000000000000000000000000000000000000000000f00000000000000000000000000000000000000000000000000000000000001990127140000000000000000000000008858d5918329fcd3dab7b6a13f940e08a52b8f4e000000200000000000000000000000008858d5918329fcd3dab7b6a13f940e08a52b8f4e00000000000000000000000000000000000000000000000000000000000000000000000000000000000000000000000000000000000000000000000000000000000000600000000000000000000000000000000000000000000000000000000000000000000000000000000000000000000000000000000000000000000000000003d09000000000000000000000000000000000000000000000000000000006a6fd66db271400000000000000000000000000000000000000000000000000000000000000000000000000000000000000007a0a53847776f7e94cc35742971acb2217b0db810000000000000000000000007a0a53847776f7e94cc35742971acb2217b0db81000000000000000000000000a4bbd9659b899f0f90326334753ed7d510da8f2001012712000000000000000000000000db5492265f6038831e89f495670ff909ade94bd9000000000000137d00000000000000",
          "blockHash": "0xf950cb96f49d45187989b15b74485b09a19682cca185daa445252b7ba75ce6f6",
          "blockNumber": "0x810681",
          "transactionHash": "0xf1ff86a97b3ffc2433480e1dcd5ebf2aa84afa327564ad51bc665993cd55e1bd",
          "transactionIndex": "0x5a",
          "logIndex": "0x9c",
          "removed": false
        },
        {
          "address": "0x7b1bd7a6b4e61c2a123ac6bc2cbfc614437d0470",
          "topics": [
            "0xda8540426b64ece7b164a9dce95448765f0a7263ef3ff85091c9c7361e485364",
            "0x00000000000000000000000000000000000000000000000000000000000832d7"
          ],
          "data": "0x000000000000000000000000000000000000000000000000003ff2e795f500000000000000000000000000000000000000000000000000000000000000000000",
          "blockHash": "0xf950cb96f49d45187989b15b74485b09a19682cca185daa445252b7ba75ce6f6",
          "blockNumber": "0x810681",
          "transactionHash": "0xf1ff86a97b3ffc2433480e1dcd5ebf2aa84afa327564ad51bc665993cd55e1bd",
          "transactionIndex": "0x5a",
          "logIndex": "0x9d",
          "removed": false
        }
      ],
      "logsBloom": "0x00000000000100040800000000000010000000000000020000000010000000010010000000004000000000000000000000000000800040000000008000200000000000000000000000000008000080000000000000000000000000000100000000000000000000000000008000000000000040000000000000000090000400000080000000000000000000000100000000000000000000000000108000000000020000000400000000000080000000000000000000000000000000000000200000000002000000000000000000000100000000040000000000000000000010000410000000000000000000020000000000000000000000000000000000000000",
      "type": "0x2",
      "transactionHash": "0xf1ff86a97b3ffc2433480e1dcd5ebf2aa84afa327564ad51bc665993cd55e1bd",
      "transactionIndex": "0x5a",
      "blockHash": "0xf950cb96f49d45187989b15b74485b09a19682cca185daa445252b7ba75ce6f6",
      "blockNumber": "0x810681",
      "gasUsed": "0x40a03",
      "effectiveGasPrice": "0xf424b",
      "from": "0x255ec453f14ed7ba3d7bebf9f253e17778b6adf3",
      "to": "0xa4bbd9659b899f0f90326334753ed7d510da8f20",
      "contractAddress": null
    }
  ],
  "libraries": [],
  "pending": [],
  "returns": {},
  "timestamp": 1748808553,
  "chain": 11155111,
  "commit": "261220f"
}