{
  "transactions": [
    {
      "hash": "0xd2f855147f1609d955c5203701dfa43491505a0da048192817895b754d194343",
      "transactionType": "CALL",
      "contractName": null,
      "contractAddress": "0x6fea2f1b82afc40030520a6c49b0d3b652a65915",
      "function": "approve(address,uint256)",
      "arguments": [
        "0xa4BBD9659b899f0f90326334753ED7d510Da8f20",
        "100000000"
      ],
      "transaction": {
        "from": "0x255ec453f14ed7ba3d7bebf9f253e17778b6adf3",
        "to": "0x6fea2f1b82afc40030520a6c49b0d3b652a65915",
        "gas": "0x100e3",
        "value": "0x0",
        "input": "0x095ea7b3000000000000000000000000a4bbd9659b899f0f90326334753ed7d510da8f200000000000000000000000000000000000000000000000000000000005f5e100",
        "nonce": "0x186",
        "chainId": "0xaa36a7"
      },
      "additionalContracts": [],
      "isFixedGasLimit": false
    },
    {
      "hash": "0xaf5f5de5cd136a4b0a7f5bf279556ff7c674c0ac8ed0bf27d334fa4bcf0a1bf1",
      "transactionType": "CALL",
      "contractName": null,
      "contractAddress": "0xa4bbd9659b899f0f90326334753ed7d510da8f20",
      "function": "sendCrossChainDeposit(uint16,address,address,uint256,address)",
      "arguments": [
        "10004",
        "0x8858D5918329FCd3DaB7b6a13f940E08a52B8f4e",
        "0x255eC453F14Ed7ba3d7BEbF9F253E17778b6ADF3",
        "100000000",
        "0x6fEA2f1b82aFC40030520a6C49B0d3b652A65915"
      ],
      "transaction": {
        "from": "0x255ec453f14ed7ba3d7bebf9f253e17778b6adf3",
        "to": "0xa4bbd9659b899f0f90326334753ed7d510da8f20",
        "gas": "0x5e83d",
        "value": "0x3ff2e795f50000",
        "input": "0x8d3ea48900000000000000000000000000000000000000000000000000000000000027140000000000000000000000008858d5918329fcd3dab7b6a13f940e08a52b8f4e000000000000000000000000255ec453f14ed7ba3d7bebf9f253e17778b6adf30000000000000000000000000000000000000000000000000000000005f5e1000000000000000000000000006fea2f1b82afc40030520a6c49b0d3b652a65915",
        "nonce": "0x187",
        "chainId": "0xaa36a7"
      },
      "additionalContracts": [],
      "isFixedGasLimit": false
    }
  ],
  "receipts": [
    {
      "status": "0x1",
      "cumulativeGasUsed": "0x184613f",
      "logs": [
        {
          "address": "0x6fea2f1b82afc40030520a6c49b0d3b652a65915",
          "topics": [
            "0x8c5be1e5ebec7d5bd14f71427d1e84f3dd0314c0f7b2291e5b200ac8c7c3b925",
            "0x000000000000000000000000255ec453f14ed7ba3d7bebf9f253e17778b6adf3",
            "0x000000000000000000000000a4bbd9659b899f0f90326334753ed7d510da8f20"
          ],
          "data": "0x0000000000000000000000000000000000000000000000000000000005f5e100",
          "blockHash": "0xbba14694042f7723879d870b3816cf416f7ab05de465a0af6deae7f13efb6c68",
          "blockNumber": "0x8104eb",
          "transactionHash": "0xd2f855147f1609d955c5203701dfa43491505a0da048192817895b754d194343",
          "transactionIndex": "0xbe",
          "logIndex": "0x1af",
          "removed": false
        }
      ],
      "logsBloom": "0x00000000000000000000000000000000000000000000020000000010000000000000000000004000000000000000000000000000000000000000000000200000000000000000000000000000000000000000000000000000000000000000000000000000000000000000008000000000000000000000000000000080000400000000000000000000000000000000000000000000000000000000000000000000020000000000000000000080000000000000000000000000000000000000000000000000000000000000000000000100000000000000000000000000000010000010000000000000000000000000000000000000000000000000000000000000",
      "type": "0x2",
      "transactionHash": "0xd2f855147f1609d955c5203701dfa43491505a0da048192817895b754d194343",
      "transactionIndex": "0xbe",
      "blockHash": "0xbba14694042f7723879d870b3816cf416f7ab05de465a0af6deae7f13efb6c68",
      "blockNumber": "0x8104eb",
      "gasUsed": "0xb9fc",
      "effectiveGasPrice": "0xf4258",
      "from": "0x255ec453f14ed7ba3d7bebf9f253e17778b6adf3",
      "to": "0x6fea2f1b82afc40030520a6c49b0d3b652a65915",
      "contractAddress": null
    },
    {
      "status": "0x1",
      "cumulativeGasUsed": "0x188ec40",
      "logs": [
        {
          "address": "0x6fea2f1b82afc40030520a6c49b0d3b652a65915",
          "topics": [
            "0xddf252ad1be2c89b69c2b068fc378daa952ba7f163c4a11628f55a4df523b3ef",
            "0x000000000000000000000000255ec453f14ed7ba3d7bebf9f253e17778b6adf3",
            "0x000000000000000000000000a4bbd9659b899f0f90326334753ed7d510da8f20"
          ],
          "data": "0x0000000000000000000000000000000000000000000000000000000005f5e100",
          "blockHash": "0xbba14694042f7723879d870b3816cf416f7ab05de465a0af6deae7f13efb6c68",
          "blockNumber": "0x8104eb",
          "transactionHash": "0xaf5f5de5cd136a4b0a7f5bf279556ff7c674c0ac8ed0bf27d334fa4bcf0a1bf1",
          "transactionIndex": "0xc0",
          "logIndex": "0x1b1",
          "removed": false
        },
        {
          "address": "0x6fea2f1b82afc40030520a6c49b0d3b652a65915",
          "topics": [
            "0x8c5be1e5ebec7d5bd14f71427d1e84f3dd0314c0f7b2291e5b200ac8c7c3b925",
            "0x000000000000000000000000255ec453f14ed7ba3d7bebf9f253e17778b6adf3",
            "0x000000000000000000000000a4bbd9659b899f0f90326334753ed7d510da8f20"
          ],
          "data": "0x0000000000000000000000000000000000000000000000000000000000000000",
          "blockHash": "0xbba14694042f7723879d870b3816cf416f7ab05de465a0af6deae7f13efb6c68",
          "blockNumber": "0x8104eb",
          "transactionHash": "0xaf5f5de5cd136a4b0a7f5bf279556ff7c674c0ac8ed0bf27d334fa4bcf0a1bf1",
          "transactionIndex": "0xc0",
          "logIndex": "0x1b2",
          "removed": false
        },
        {
          "address": "0x6fea2f1b82afc40030520a6c49b0d3b652a65915",
          "topics": [
            "0x8c5be1e5ebec7d5bd14f71427d1e84f3dd0314c0f7b2291e5b200ac8c7c3b925",
            "0x000000000000000000000000a4bbd9659b899f0f90326334753ed7d510da8f20",
            "0x000000000000000000000000db5492265f6038831e89f495670ff909ade94bd9"
          ],
          "data": "0x0000000000000000000000000000000000000000000000000000000005f5e100",
          "blockHash": "0xbba14694042f7723879d870b3816cf416f7ab05de465a0af6deae7f13efb6c68",
          "blockNumber": "0x8104eb",
          "transactionHash": "0xaf5f5de5cd136a4b0a7f5bf279556ff7c674c0ac8ed0bf27d334fa4bcf0a1bf1",
          "transactionIndex": "0xc0",
          "logIndex": "0x1b3",
          "removed": false
        },
        {
          "address": "0x6fea2f1b82afc40030520a6c49b0d3b652a65915",
          "topics": [
            "0xddf252ad1be2c89b69c2b068fc378daa952ba7f163c4a11628f55a4df523b3ef",
            "0x000000000000000000000000a4bbd9659b899f0f90326334753ed7d510da8f20",
            "0x000000000000000000000000db5492265f6038831e89f495670ff909ade94bd9"
          ],
          "data": "0x0000000000000000000000000000000000000000000000000000000005f5e100",
          "blockHash": "0xbba14694042f7723879d870b3816cf416f7ab05de465a0af6deae7f13efb6c68",
          "blockNumber": "0x8104eb",
          "transactionHash": "0xaf5f5de5cd136a4b0a7f5bf279556ff7c674c0ac8ed0bf27d334fa4bcf0a1bf1",
          "transactionIndex": "0xc0",
          "logIndex": "0x1b4",
          "removed": false
        },
        {
          "address": "0x6fea2f1b82afc40030520a6c49b0d3b652a65915",
          "topics": [
            "0x8c5be1e5ebec7d5bd14f71427d1e84f3dd0314c0f7b2291e5b200ac8c7c3b925",
            "0x000000000000000000000000a4bbd9659b899f0f90326334753ed7d510da8f20",
            "0x000000000000000000000000db5492265f6038831e89f495670ff909ade94bd9"
          ],
          "data": "0x0000000000000000000000000000000000000000000000000000000000000000",
          "blockHash": "0xbba14694042f7723879d870b3816cf416f7ab05de465a0af6deae7f13efb6c68",
          "blockNumber": "0x8104eb",
          "transactionHash": "0xaf5f5de5cd136a4b0a7f5bf279556ff7c674c0ac8ed0bf27d334fa4bcf0a1bf1",
          "transactionIndex": "0xc0",
          "logIndex": "0x1b5",
          "removed": false
        },
        {
          "address": "0x4a8bc80ed5a4067f1ccf107057b8270e0cc11a78",
          "topics": [
            "0x6eb224fb001ed210e379b335e35efe88672a8ce935d981a6896b27ffdf52a3b2",
            "0x000000000000000000000000db5492265f6038831e89f495670ff909ade94bd9"
          ],
          "data": "0x000000000000000000000000000000000000000000000000000000000000137c0000000000000000000000000000000000000000000000000000000000000000000000000000000000000000000000000000000000000000000000000000008000000000000000000000000000000000000000000000000000000000000000010000000000000000000000000000000000000000000000000000000000000085030000000000000000000000000000000000000000000000000000000005f5e1000000000000000000000000006fea2f1b82afc40030520a6c49b0d3b652a6591527120000000000000000000000008858d5918329fcd3dab7b6a13f940e08a52b8f4e2714000000000000000000000000a4bbd9659b899f0f90326334753ed7d510da8f20000000000000000000000000000000000000000000000000000000",
          "blockHash": "0xbba14694042f7723879d870b3816cf416f7ab05de465a0af6deae7f13efb6c68",
          "blockNumber": "0x8104eb",
          "transactionHash": "0xaf5f5de5cd136a4b0a7f5bf279556ff7c674c0ac8ed0bf27d334fa4bcf0a1bf1",
          "transactionIndex": "0xc0",
          "logIndex": "0x1b6",
          "removed": false
        },
        {
          "address": "0x4a8bc80ed5a4067f1ccf107057b8270e0cc11a78",
          "topics": [
            "0x6eb224fb001ed210e379b335e35efe88672a8ce935d981a6896b27ffdf52a3b2",
            "0x0000000000000000000000007b1bd7a6b4e61c2a123ac6bc2cbfc614437d0470"
          ],
          "data": "0x000000000000000000000000000000000000000000000000000000000008327500000000000000000000000000000000000000000000000000000000000000000000000000000000000000000000000000000000000000000000000000000080000000000000000000000000000000000000000000000000000000000000000f00000000000000000000000000000000000000000000000000000000000001990127140000000000000000000000008858d5918329fcd3dab7b6a13f940e08a52b8f4e00000020000000000000000000000000255ec453f14ed7ba3d7bebf9f253e17778b6adf300000000000000000000000000000000000000000000000000000000000000000000000000000000000000000000000000000000000000000000000000000000000000600000000000000000000000000000000000000000000000000000000000000000000000000000000000000000000000000000000000000000000000000003d09000000000000000000000000000000000000000000000000000000006a6fd66db271400000000000000000000000000000000000000000000000000000000000000000000000000000000000000007a0a53847776f7e94cc35742971acb2217b0db810000000000000000000000007a0a53847776f7e94cc35742971acb2217b0db81000000000000000000000000a4bbd9659b899f0f90326334753ed7d510da8f2001012712000000000000000000000000db5492265f6038831e89f495670ff909ade94bd9000000000000137c00000000000000",
          "blockHash": "0xbba14694042f7723879d870b3816cf416f7ab05de465a0af6deae7f13efb6c68",
          "blockNumber": "0x8104eb",
          "transactionHash": "0xaf5f5de5cd136a4b0a7f5bf279556ff7c674c0ac8ed0bf27d334fa4bcf0a1bf1",
          "transactionIndex": "0xc0",
          "logIndex": "0x1b7",
          "removed": false
        },
        {
          "address": "0x7b1bd7a6b4e61c2a123ac6bc2cbfc614437d0470",
          "topics": [
            "0xda8540426b64ece7b164a9dce95448765f0a7263ef3ff85091c9c7361e485364",
            "0x0000000000000000000000000000000000000000000000000000000000083275"
          ],
          "data": "0x000000000000000000000000000000000000000000000000003ff2e795f500000000000000000000000000000000000000000000000000000000000000000000",
          "blockHash": "0xbba14694042f7723879d870b3816cf416f7ab05de465a0af6deae7f13efb6c68",
          "blockNumber": "0x8104eb",
          "transactionHash": "0xaf5f5de5cd136a4b0a7f5bf279556ff7c674c0ac8ed0bf27d334fa4bcf0a1bf1",
          "transactionIndex": "0xc0",
          "logIndex": "0x1b8",
          "removed": false
        }
      ],
      "logsBloom": "0x0000000000010004000000080000001000000000000002000000001000000001001000000000400000000000000000000000000080004000000000800020000000400000000000000000000800008000000000000000000000000000010000000000000000000000000000800000000000004000000000000000009000040000008000000000000000000000010000000000000000000000000010c000000000020000000400000000000080000000000000000000000000000000000000000000000002000000000000000000000100000000000000000000000000000010000410000000000000000000020000000000000000000000000000000000000000",
      "type": "0x2",
      "transactionHash": "0xaf5f5de5cd136a4b0a7f5bf279556ff7c674c0ac8ed0bf27d334fa4bcf0a1bf1",
      "transactionIndex": "0xc0",
      "blockHash": "0xbba14694042f7723879d870b3816cf416f7ab05de465a0af6deae7f13efb6c68",
      "blockNumber": "0x8104eb",
      "gasUsed": "0x40a03",
      "effectiveGasPrice": "0xf4258",
      "from": "0x255ec453f14ed7ba3d7bebf9f253e17778b6adf3",
      "to": "0xa4bbd9659b899f0f90326334753ed7d510da8f20",
      "contractAddress": null
    }
  ],
  "libraries": [],
  "pending": [],
  "returns": {},
  "timestamp": 1748803684,
  "chain": 11155111,
  "commit": "261220f"
}