{
  "transactions": [
    {
      "hash": "0x301674b7367e7c9617ade648199faf549315abec7e9cddd9dd5d8c43f93e60b9",
      "transactionType": "CALL",
      "contractName": null,
      "contractAddress": "0x6fea2f1b82afc40030520a6c49b0d3b652a65915",
      "function": "approve(address,uint256)",
      "arguments": [
        "0xf31B3eb0584a7D5901df4995a136D817013bef9b",
        "100000000"
      ],
      "transaction": {
        "from": "0x255ec453f14ed7ba3d7bebf9f253e17778b6adf3",
        "to": "0x6fea2f1b82afc40030520a6c49b0d3b652a65915",
        "gas": "0x100e3",
        "value": "0x0",
        "input": "0x095ea7b3000000000000000000000000f31b3eb0584a7d5901df4995a136d817013bef9b0000000000000000000000000000000000000000000000000000000005f5e100",
        "nonce": "0x181",
        "chainId": "0xaa36a7"
      },
      "additionalContracts": [],
      "isFixedGasLimit": false
    },
    {
      "hash": "0xd77361ac32ceec378117d2caf9574947d5f78317fcb22a74bf463642e2dd5422",
      "transactionType": "CALL",
      "contractName": null,
      "contractAddress": "0xf31b3eb0584a7d5901df4995a136d817013bef9b",
      "function": "sendCrossChainDeposit(uint16,address,address,uint256,address)",
      "arguments": [
        "10003",
        "0x9451CA5a812e53D7d7215f8f755991a54DE080d1",
        "0x255eC453F14Ed7ba3d7BEbF9F253E17778b6ADF3",
        "100000000",
        "0x6fEA2f1b82aFC40030520a6C49B0d3b652A65915"
      ],
      "transaction": {
        "from": "0x255ec453f14ed7ba3d7bebf9f253e17778b6adf3",
        "to": "0xf31b3eb0584a7d5901df4995a136d817013bef9b",
        "gas": "0x5e83d",
        "value": "0x3ff2e795f50000",
        "input": "0x8d3ea48900000000000000000000000000000000000000000000000000000000000027130000000000000000000000009451ca5a812e53d7d7215f8f755991a54de080d1000000000000000000000000255ec453f14ed7ba3d7bebf9f253e17778b6adf30000000000000000000000000000000000000000000000000000000005f5e1000000000000000000000000006fea2f1b82afc40030520a6c49b0d3b652a65915",
        "nonce": "0x182",
        "chainId": "0xaa36a7"
      },
      "additionalContracts": [],
      "isFixedGasLimit": false
    }
  ],
  "receipts": [
    {
      "status": "0x1",
      "cumulativeGasUsed": "0xd8ce6e",
      "logs": [
        {
          "address": "0x6fea2f1b82afc40030520a6c49b0d3b652a65915",
          "topics": [
            "0x8c5be1e5ebec7d5bd14f71427d1e84f3dd0314c0f7b2291e5b200ac8c7c3b925",
            "0x000000000000000000000000255ec453f14ed7ba3d7bebf9f253e17778b6adf3",
            "0x000000000000000000000000f31b3eb0584a7d5901df4995a136d817013bef9b"
          ],
          "data": "0x0000000000000000000000000000000000000000000000000000000005f5e100",
          "blockHash": "0x70543af3f76f8aa51a4bb86edaee1ff380b5a59a0c20fa3a700e7329b98c25fe",
          "blockNumber": "0x80e847",
          "transactionHash": "0x301674b7367e7c9617ade648199faf549315abec7e9cddd9dd5d8c43f93e60b9",
          "transactionIndex": "0x70",
          "logIndex": "0x11a",
          "removed": false
        }
      ],
      "logsBloom": "0x00000000000000000000000000000000000000000000020000000010000000000000000000000000000000000000000000000000000000000000001000200000000000000000000000000000000000000000000100000000000000000000000000000000000000000000008000000000000000000000000000000080000000000000000000000000000000000000000000000000000000000000000000000000020000000000000000000080000000000000000000000002000000000000000000000000000000000000000000000000000000000000000000000000000010000010000000000000000000000000000000000000000000000000000000000000",
      "type": "0x2",
      "transactionHash": "0x301674b7367e7c9617ade648199faf549315abec7e9cddd9dd5d8c43f93e60b9",
      "transactionIndex": "0x70",
      "blockHash": "0x70543af3f76f8aa51a4bb86edaee1ff380b5a59a0c20fa3a700e7329b98c25fe",
      "blockNumber": "0x80e847",
      "gasUsed": "0xb9fc",
      "effectiveGasPrice": "0xf541f",
      "from": "0x255ec453f14ed7ba3d7bebf9f253e17778b6adf3",
      "to": "0x6fea2f1b82afc40030520a6c49b0d3b652a65915",
      "contractAddress": null
    },
    {
      "status": "0x1",
      "cumulativeGasUsed": "0xdf74ff",
      "logs": [
        {
          "address": "0x6fea2f1b82afc40030520a6c49b0d3b652a65915",
          "topics": [
            "0xddf252ad1be2c89b69c2b068fc378daa952ba7f163c4a11628f55a4df523b3ef",
            "0x000000000000000000000000255ec453f14ed7ba3d7bebf9f253e17778b6adf3",
            "0x000000000000000000000000f31b3eb0584a7d5901df4995a136d817013bef9b"
          ],
          "data": "0x0000000000000000000000000000000000000000000000000000000005f5e100",
          "blockHash": "0x70543af3f76f8aa51a4bb86edaee1ff380b5a59a0c20fa3a700e7329b98c25fe",
          "blockNumber": "0x80e847",
          "transactionHash": "0xd77361ac32ceec378117d2caf9574947d5f78317fcb22a74bf463642e2dd5422",
          "transactionIndex": "0x73",
          "logIndex": "0x11d",
          "removed": false
        },
        {
          "address": "0x6fea2f1b82afc40030520a6c49b0d3b652a65915",
          "topics": [
            "0x8c5be1e5ebec7d5bd14f71427d1e84f3dd0314c0f7b2291e5b200ac8c7c3b925",
            "0x000000000000000000000000255ec453f14ed7ba3d7bebf9f253e17778b6adf3",
            "0x000000000000000000000000f31b3eb0584a7d5901df4995a136d817013bef9b"
          ],
          "data": "0x0000000000000000000000000000000000000000000000000000000000000000",
          "blockHash": "0x70543af3f76f8aa51a4bb86edaee1ff380b5a59a0c20fa3a700e7329b98c25fe",
          "blockNumber": "0x80e847",
          "transactionHash": "0xd77361ac32ceec378117d2caf9574947d5f78317fcb22a74bf463642e2dd5422",
          "transactionIndex": "0x73",
          "logIndex": "0x11e",
          "removed": false
        },
        {
          "address": "0x6fea2f1b82afc40030520a6c49b0d3b652a65915",
          "topics": [
            "0x8c5be1e5ebec7d5bd14f71427d1e84f3dd0314c0f7b2291e5b200ac8c7c3b925",
            "0x000000000000000000000000f31b3eb0584a7d5901df4995a136d817013bef9b",
            "0x000000000000000000000000db5492265f6038831e89f495670ff909ade94bd9"
          ],
          "data": "0x0000000000000000000000000000000000000000000000000000000005f5e100",
          "blockHash": "0x70543af3f76f8aa51a4bb86edaee1ff380b5a59a0c20fa3a700e7329b98c25fe",
          "blockNumber": "0x80e847",
          "transactionHash": "0xd77361ac32ceec378117d2caf9574947d5f78317fcb22a74bf463642e2dd5422",
          "transactionIndex": "0x73",
          "logIndex": "0x11f",
          "removed": false
        },
        {
          "address": "0x6fea2f1b82afc40030520a6c49b0d3b652a65915",
          "topics": [
            "0xddf252ad1be2c89b69c2b068fc378daa952ba7f163c4a11628f55a4df523b3ef",
            "0x000000000000000000000000f31b3eb0584a7d5901df4995a136d817013bef9b",
            "0x000000000000000000000000db5492265f6038831e89f495670ff909ade94bd9"
          ],
          "data": "0x0000000000000000000000000000000000000000000000000000000005f5e100",
          "blockHash": "0x70543af3f76f8aa51a4bb86edaee1ff380b5a59a0c20fa3a700e7329b98c25fe",
          "blockNumber": "0x80e847",
          "transactionHash": "0xd77361ac32ceec378117d2caf9574947d5f78317fcb22a74bf463642e2dd5422",
          "transactionIndex": "0x73",
          "logIndex": "0x120",
          "removed": false
        },
        {
          "address": "0x6fea2f1b82afc40030520a6c49b0d3b652a65915",
          "topics": [
            "0x8c5be1e5ebec7d5bd14f71427d1e84f3dd0314c0f7b2291e5b200ac8c7c3b925",
            "0x000000000000000000000000f31b3eb0584a7d5901df4995a136d817013bef9b",
            "0x000000000000000000000000db5492265f6038831e89f495670ff909ade94bd9"
          ],
          "data": "0x0000000000000000000000000000000000000000000000000000000000000000",
          "blockHash": "0x70543af3f76f8aa51a4bb86edaee1ff380b5a59a0c20fa3a700e7329b98c25fe",
          "blockNumber": "0x80e847",
          "transactionHash": "0xd77361ac32ceec378117d2caf9574947d5f78317fcb22a74bf463642e2dd5422",
          "transactionIndex": "0x73",
          "logIndex": "0x121",
          "removed": false
        },
        {
          "address": "0x4a8bc80ed5a4067f1ccf107057b8270e0cc11a78",
          "topics": [
            "0x6eb224fb001ed210e379b335e35efe88672a8ce935d981a6896b27ffdf52a3b2",
            "0x000000000000000000000000db5492265f6038831e89f495670ff909ade94bd9"
          ],
          "data": "0x00000000000000000000000000000000000000000000000000000000000013790000000000000000000000000000000000000000000000000000000000000000000000000000000000000000000000000000000000000000000000000000008000000000000000000000000000000000000000000000000000000000000000010000000000000000000000000000000000000000000000000000000000000085030000000000000000000000000000000000000000000000000000000005f5e1000000000000000000000000006fea2f1b82afc40030520a6c49b0d3b652a6591527120000000000000000000000009451ca5a812e53d7d7215f8f755991a54de080d12713000000000000000000000000f31b3eb0584a7d5901df4995a136d817013bef9b000000000000000000000000000000000000000000000000000000",
          "blockHash": "0x70543af3f76f8aa51a4bb86edaee1ff380b5a59a0c20fa3a700e7329b98c25fe",
          "blockNumber": "0x80e847",
          "transactionHash": "0xd77361ac32ceec378117d2caf9574947d5f78317fcb22a74bf463642e2dd5422",
          "transactionIndex": "0x73",
          "logIndex": "0x122",
          "removed": false
        },
        {
          "address": "0x4a8bc80ed5a4067f1ccf107057b8270e0cc11a78",
          "topics": [
            "0x6eb224fb001ed210e379b335e35efe88672a8ce935d981a6896b27ffdf52a3b2",
            "0x0000000000000000000000007b1bd7a6b4e61c2a123ac6bc2cbfc614437d0470"
          ],
          "data": "0x0000000000000000000000000000000000000000000000000000000000082a5000000000000000000000000000000000000000000000000000000000000000000000000000000000000000000000000000000000000000000000000000000080000000000000000000000000000000000000000000000000000000000000000f00000000000000000000000000000000000000000000000000000000000001990127130000000000000000000000009451ca5a812e53d7d7215f8f755991a54de080d100000020000000000000000000000000255ec453f14ed7ba3d7bebf9f253e17778b6adf300000000000000000000000000000000000000000000000000000000000000000000000000000000000000000000000000000000000000000000000000000000000000600000000000000000000000000000000000000000000000000000000000000000000000000000000000000000000000000000000000000000000000000003d09000000000000000000000000000000000000000000000000000000006a6fd66db271300000000000000000000000000000000000000000000000000000000000000000000000000000000000000007a0a53847776f7e94cc35742971acb2217b0db810000000000000000000000007a0a53847776f7e94cc35742971acb2217b0db81000000000000000000000000f31b3eb0584a7d5901df4995a136d817013bef9b01012712000000000000000000000000db5492265f6038831e89f495670ff909ade94bd9000000000000137900000000000000",
          "blockHash": "0x70543af3f76f8aa51a4bb86edaee1ff380b5a59a0c20fa3a700e7329b98c25fe",
          "blockNumber": "0x80e847",
          "transactionHash": "0xd77361ac32ceec378117d2caf9574947d5f78317fcb22a74bf463642e2dd5422",
          "transactionIndex": "0x73",
          "logIndex": "0x123",
          "removed": false
        },
        {
          "address": "0x7b1bd7a6b4e61c2a123ac6bc2cbfc614437d0470",
          "topics": [
            "0xda8540426b64ece7b164a9dce95448765f0a7263ef3ff85091c9c7361e485364",
            "0x0000000000000000000000000000000000000000000000000000000000082a50"
          ],
          "data": "0x000000000000000000000000000000000000000000000000003ff2e795f500000000000000000000000000000000000000000000000000000000000000000000",
          "blockHash": "0x70543af3f76f8aa51a4bb86edaee1ff380b5a59a0c20fa3a700e7329b98c25fe",
          "blockNumber": "0x80e847",
          "transactionHash": "0xd77361ac32ceec378117d2caf9574947d5f78317fcb22a74bf463642e2dd5422",
          "transactionIndex": "0x73",
          "logIndex": "0x124",
          "removed": false
        }
      ],
      "logsBloom": "0x00000000000100040000000000000010000000000000020000000010000000010010000000000000000000000000000000000000800040000000409000200000000000000000000000000008000080000000000100000000000000000100000000000000000000000000008000000000000040000000000000000090000000000080000000000000000000000140000000000000000000000000108000000000020000000400000000000080000000000000000000000002000000000000000000000002000000000000008000000000000000000000000000000000000010000410000000000000000000020000000000000000000000000000000000000000",
      "type": "0x2",
      "transactionHash": "0xd77361ac32ceec378117d2caf9574947d5f78317fcb22a74bf463642e2dd5422",
      "transactionIndex": "0x73",
      "blockHash": "0x70543af3f76f8aa51a4bb86edaee1ff380b5a59a0c20fa3a700e7329b98c25fe",
      "blockNumber": "0x80e847",
      "gasUsed": "0x40a03",
      "effectiveGasPrice": "0xf541f",
      "from": "0x255ec453f14ed7ba3d7bebf9f253e17778b6adf3",
      "to": "0xf31b3eb0584a7d5901df4995a136d817013bef9b",
      "contractAddress": null
    }
  ],
  "libraries": [],
  "pending": [],
  "returns": {},
  "timestamp": 1748715505,
  "chain": 11155111,
  "commit": "261220f"
}