{
  "transactions": [
    {
      "hash": "0xa0bcc5d618628c5721abb858dc1f92ace80776fa288129a8ce0b1bee346623ca",
      "transactionType": "CREATE",
      "contractName": "CrossChainSender",
      "contractAddress": "0x68d4b357cb74bbfa124f6d7032b26c8b48090c38",
      "function": null,
      "arguments": [
        "0x7B1bD7a6b4E61c2a123AC6BC2cbfC614437D0470",
        "0xDB5492265f6038831E89f495670FF909aDe94bd9",
        "0x4a8bc80Ed5a4067f1CCf107057b8270E0cC11A78"
      ],
      "transaction": {
        "from": "0x255ec453f14ed7ba3d7bebf9f253e17778b6adf3",
        "gas": "0x17d06e",
        "value": "0x0",
        "input": "0x60e060405234801561000f575f5ffd5b506040516116753803806116758339818101604052810190610031919061017c565b82828282818173ffffffffffffffffffffffffffffffffffffffff1660808173ffffffffffffffffffffffffffffffffffffffff16815250508073ffffffffffffffffffffffffffffffffffffffff1660a08173ffffffffffffffffffffffffffffffffffffffff1681525050335f5f6101000a81548173ffffffffffffffffffffffffffffffffffffffff021916908373ffffffffffffffffffffffffffffffffffffffff16021790555050508173ffffffffffffffffffffffffffffffffffffffff1660c08173ffffffffffffffffffffffffffffffffffffffff16815250505050505050506101cc565b5f5ffd5b5f73ffffffffffffffffffffffffffffffffffffffff82169050919050565b5f61014b82610122565b9050919050565b61015b81610141565b8114610165575f5ffd5b50565b5f8151905061017681610152565b92915050565b5f5f5f606084860312156101935761019261011e565b5b5f6101a086828701610168565b93505060206101b186828701610168565b92505060406101c286828701610168565b9150509250925092565b60805160a05160c0516114406102355f395f81816103cc015281816106eb0152818161076c015261094b01525f81816101fd0152818161029d015281816107a801526108b201525f818161015a015281816103f00152818161054801526105e601526114405ff3fe608060405260043610610054575f3560e01c80632b524c971461005857806384acd1bb146100945780638d3ea489146100be578063c6328a46146100da578063da25b72514610104578063dd12d68b1461012e575b5f5ffd5b348015610063575f5ffd5b5061007e60048036038101906100799190610a16565b610156565b60405161008b9190610a59565b60405180910390f35b34801561009f575f5ffd5b506100a861029b565b6040516100b59190610aec565b60405180910390f35b6100d860048036038101906100d39190610b6a565b6102bf565b005b3480156100e5575f5ffd5b506100ee6103ca565b6040516100fb9190610c01565b60405180910390f35b34801561010f575f5ffd5b506101186103ee565b6040516101259190610c3a565b60405180910390f35b348015610139575f5ffd5b50610154600480360381019061014f9190610c86565b610412565b005b5f5f7f000000000000000000000000000000000000000000000000000000000000000073ffffffffffffffffffffffffffffffffffffffff1663c23ee3c3845f6203d0906040518463ffffffff1660e01b81526004016101b893929190610d0c565b6040805180830381865afa1580156101d2573d5f5f3e3d5ffd5b505050506040513d601f19601f820116820180604052508101906101f69190610d55565b50809150507f000000000000000000000000000000000000000000000000000000000000000073ffffffffffffffffffffffffffffffffffffffff16631a90a2196040518163ffffffff1660e01b8152600401602060405180830381865afa158015610264573d5f5f3e3d5ffd5b505050506040513d601f19601f820116820180604052508101906102889190610d93565b816102939190610deb565b915050919050565b7f000000000000000000000000000000000000000000000000000000000000000081565b5f6102c986610156565b905080341461030d576040517f08c379a000000000000000000000000000000000000000000000000000000000815260040161030490610e9e565b60405180910390fd5b8173ffffffffffffffffffffffffffffffffffffffff166323b872dd3330866040518463ffffffff1660e01b815260040161034a93929190610ecb565b6020604051808303815f875af1158015610366573d5f5f3e3d5ffd5b505050506040513d601f19601f8201168201806040525081019061038a9190610f35565b505f8460405160200161039d9190610f60565b60405160208183030381529060405290506103c08787835f6203d090888a6104c2565b5050505050505050565b7f000000000000000000000000000000000000000000000000000000000000000081565b7f000000000000000000000000000000000000000000000000000000000000000081565b5f5f9054906101000a900473ffffffffffffffffffffffffffffffffffffffff1673ffffffffffffffffffffffffffffffffffffffff163373ffffffffffffffffffffffffffffffffffffffff16146104a0576040517f08c379a000000000000000000000000000000000000000000000000000000000815260040161049790610fe9565b60405180910390fd5b8060015f8461ffff1661ffff1681526020019081526020015f20819055505050565b5f5f600167ffffffffffffffff8111156104df576104de611007565b5b60405190808252806020026020018201604052801561051857816020015b6105056109af565b8152602001906001900390816104fd5790505b50905061052784848b8b610698565b815f8151811061053a57610539611034565b5b60200260200101819052505f7f000000000000000000000000000000000000000000000000000000000000000073ffffffffffffffffffffffffffffffffffffffff1663c23ee3c38b89896040518463ffffffff1660e01b81526004016105a393929190611061565b6040805180830381865afa1580156105bd573d5f5f3e3d5ffd5b505050506040513d601f19601f820116820180604052508101906105e19190610d55565b5090507f000000000000000000000000000000000000000000000000000000000000000073ffffffffffffffffffffffffffffffffffffffff1663329a2be7828c8c8c8c8c896040518863ffffffff1660e01b81526004016106489695949392919061122e565b60206040518083038185885af1158015610664573d5f5f3e3d5ffd5b50505050506040513d601f19601f8201168201806040525081019061068991906112c5565b92505050979650505050505050565b6106a06109af565b6106bb8585858560405180602001604052805f8152506106c5565b9050949350505050565b6106cd6109af565b8573ffffffffffffffffffffffffffffffffffffffff1663095ea7b37f0000000000000000000000000000000000000000000000000000000000000000876040518363ffffffff1660e01b81526004016107289291906112f0565b6020604051808303815f875af1158015610744573d5f5f3e3d5ffd5b505050506040513d601f19601f820116820180604052508101906107689190610f35565b505f7f000000000000000000000000000000000000000000000000000000000000000073ffffffffffffffffffffffffffffffffffffffff1663c5a5ebda7f000000000000000000000000000000000000000000000000000000000000000073ffffffffffffffffffffffffffffffffffffffff16631a90a2196040518163ffffffff1660e01b8152600401602060405180830381865afa15801561080f573d5f5f3e3d5ffd5b505050506040513d601f19601f820116820180604052508101906108339190610d93565b89898961083f8a61098e565b5f8a6040518863ffffffff1660e01b815260040161086296959493929190611365565b60206040518083038185885af115801561087e573d5f5f3e3d5ffd5b50505050506040513d601f19601f820116820180604052508101906108a391906112c5565b905060405180606001604052807f000000000000000000000000000000000000000000000000000000000000000073ffffffffffffffffffffffffffffffffffffffff16639a8a05926040518163ffffffff1660e01b8152600401602060405180830381865afa158015610919573d5f5f3e3d5ffd5b505050506040513d601f19601f8201168201806040525081019061093d91906113df565b61ffff16815260200161096f7f000000000000000000000000000000000000000000000000000000000000000061098e565b81526020018267ffffffffffffffff1681525091505095945050505050565b5f8173ffffffffffffffffffffffffffffffffffffffff165f1b9050919050565b60405180606001604052805f61ffff1681526020015f81526020015f67ffffffffffffffff1681525090565b5f5ffd5b5f61ffff82169050919050565b6109f5816109df565b81146109ff575f5ffd5b50565b5f81359050610a10816109ec565b92915050565b5f60208284031215610a2b57610a2a6109db565b5b5f610a3884828501610a02565b91505092915050565b5f819050919050565b610a5381610a41565b82525050565b5f602082019050610a6c5f830184610a4a565b92915050565b5f73ffffffffffffffffffffffffffffffffffffffff82169050919050565b5f819050919050565b5f610ab4610aaf610aaa84610a72565b610a91565b610a72565b9050919050565b5f610ac582610a9a565b9050919050565b5f610ad682610abb565b9050919050565b610ae681610acc565b82525050565b5f602082019050610aff5f830184610add565b92915050565b5f610b0f82610a72565b9050919050565b610b1f81610b05565b8114610b29575f5ffd5b50565b5f81359050610b3a81610b16565b92915050565b610b4981610a41565b8114610b53575f5ffd5b50565b5f81359050610b6481610b40565b92915050565b5f5f5f5f5f60a08688031215610b8357610b826109db565b5b5f610b9088828901610a02565b9550506020610ba188828901610b2c565b9450506040610bb288828901610b2c565b9350506060610bc388828901610b56565b9250506080610bd488828901610b2c565b9150509295509295909350565b5f610beb82610abb565b9050919050565b610bfb81610be1565b82525050565b5f602082019050610c145f830184610bf2565b92915050565b5f610c2482610abb565b9050919050565b610c3481610c1a565b82525050565b5f602082019050610c4d5f830184610c2b565b92915050565b5f819050919050565b610c6581610c53565b8114610c6f575f5ffd5b50565b5f81359050610c8081610c5c565b92915050565b5f5f60408385031215610c9c57610c9b6109db565b5b5f610ca985828601610a02565b9250506020610cba85828601610c72565b9150509250929050565b610ccd816109df565b82525050565b5f819050919050565b5f610cf6610cf1610cec84610cd3565b610a91565b610a41565b9050919050565b610d0681610cdc565b82525050565b5f606082019050610d1f5f830186610cc4565b610d2c6020830185610cfd565b610d396040830184610a4a565b949350505050565b5f81519050610d4f81610b40565b92915050565b5f5f60408385031215610d6b57610d6a6109db565b5b5f610d7885828601610d41565b9250506020610d8985828601610d41565b9150509250929050565b5f60208284031215610da857610da76109db565b5b5f610db584828501610d41565b91505092915050565b7f4e487b71000000000000000000000000000000000000000000000000000000005f52601160045260245ffd5b5f610df582610a41565b9150610e0083610a41565b9250828201905080821115610e1857610e17610dbe565b5b92915050565b5f82825260208201905092915050565b7f6d73672e76616c7565206d75737420657175616c2071756f746543726f7373435f8201527f6861696e4465706f73697428746172676574436861696e290000000000000000602082015250565b5f610e88603883610e1e565b9150610e9382610e2e565b604082019050919050565b5f6020820190508181035f830152610eb581610e7c565b9050919050565b610ec581610b05565b82525050565b5f606082019050610ede5f830186610ebc565b610eeb6020830185610ebc565b610ef86040830184610a4a565b949350505050565b5f8115159050919050565b610f1481610f00565b8114610f1e575f5ffd5b50565b5f81519050610f2f81610f0b565b92915050565b5f60208284031215610f4a57610f496109db565b5b5f610f5784828501610f21565b91505092915050565b5f602082019050610f735f830184610ebc565b92915050565b7f4e6f7420616c6c6f77656420746f2073657420726567697374657265642073655f8201527f6e64657200000000000000000000000000000000000000000000000000000000602082015250565b5f610fd3602483610e1e565b9150610fde82610f79565b604082019050919050565b5f6020820190508181035f83015261100081610fc7565b9050919050565b7f4e487b71000000000000000000000000000000000000000000000000000000005f52604160045260245ffd5b7f4e487b71000000000000000000000000000000000000000000000000000000005f52603260045260245ffd5b5f6060820190506110745f830186610cc4565b6110816020830185610a4a565b61108e6040830184610a4a565b949350505050565b5f81519050919050565b5f82825260208201905092915050565b8281835e5f83830152505050565b5f601f19601f8301169050919050565b5f6110d882611096565b6110e281856110a0565b93506110f28185602086016110b0565b6110fb816110be565b840191505092915050565b5f81519050919050565b5f82825260208201905092915050565b5f819050602082019050919050565b611138816109df565b82525050565b61114781610c53565b82525050565b5f67ffffffffffffffff82169050919050565b6111698161114d565b82525050565b606082015f8201516111835f85018261112f565b506020820151611196602085018261113e565b5060408201516111a96040850182611160565b50505050565b5f6111ba838361116f565b60608301905092915050565b5f602082019050919050565b5f6111dc82611106565b6111e68185611110565b93506111f183611120565b805f5b8381101561122157815161120888826111af565b9750611213836111c6565b9250506001810190506111f4565b5085935050505092915050565b5f60c0820190506112415f830189610cc4565b61124e6020830188610ebc565b818103604083015261126081876110ce565b905061126f6060830186610a4a565b61127c6080830185610a4a565b81810360a083015261128e81846111d2565b9050979650505050505050565b6112a48161114d565b81146112ae575f5ffd5b50565b5f815190506112bf8161129b565b92915050565b5f602082840312156112da576112d96109db565b5b5f6112e7848285016112b1565b91505092915050565b5f6040820190506113035f830185610ebc565b6113106020830184610a4a565b9392505050565b61132081610c53565b82525050565b5f63ffffffff82169050919050565b5f61134f61134a61134584610cd3565b610a91565b611326565b9050919050565b61135f81611335565b82525050565b5f60c0820190506113785f830189610ebc565b6113856020830188610a4a565b6113926040830187610cc4565b61139f6060830186611317565b6113ac6080830185611356565b81810360a08301526113be81846110ce565b9050979650505050505050565b5f815190506113d9816109ec565b92915050565b5f602082840312156113f4576113f36109db565b5b5f611401848285016113cb565b9150509291505056fea26469706673582212200f150d2faa5c6fc9b67396d584149d2a10594fc8685d7dabe3451ca5ea27304664736f6c634300081c00330000000000000000000000007b1bd7a6b4e61c2a123ac6bc2cbfc614437d0470000000000000000000000000db5492265f6038831e89f495670ff909ade94bd90000000000000000000000004a8bc80ed5a4067f1ccf107057b8270e0cc11a78",
        "nonce": "0x177",
        "chainId": "0xaa36a7"
      },
      "additionalContracts": [],
      "isFixedGasLimit": false
    },
    {
      "hash": "0xc19e29ff3f86861526021019f7e21721a75239c72e9269fa6ae6632518e2ea4f",
      "transactionType": "CALL",
      "contractName": null,
      "contractAddress": "0x6fea2f1b82afc40030520a6c49b0d3b652a65915",
      "function": "approve(address,uint256)",
      "arguments": [
        "0x68D4B357Cb74bBfa124F6d7032b26C8B48090c38",
        "100000000"
      ],
      "transaction": {
        "from": "0x255ec453f14ed7ba3d7bebf9f253e17778b6adf3",
        "to": "0x6fea2f1b82afc40030520a6c49b0d3b652a65915",
        "gas": "0x100e3",
        "value": "0x0",
        "input": "0x095ea7b300000000000000000000000068d4b357cb74bbfa124f6d7032b26c8b48090c380000000000000000000000000000000000000000000000000000000005f5e100",
        "nonce": "0x178",
        "chainId": "0xaa36a7"
      },
      "additionalContracts": [],
      "isFixedGasLimit": false
    },
    {
      "hash": "0x63633ea3d7f4d65953dddda7cb82749bf88d4ba757fd00183cda74ee1a1e1280",
      "transactionType": "CALL",
      "contractName": "CrossChainSender",
      "contractAddress": "0x68d4b357cb74bbfa124f6d7032b26c8b48090c38",
      "function": "sendCrossChainDeposit(uint16,address,address,uint256,address)",
      "arguments": [
        "10003",
        "0x420907B3d7c1D37605C01919891c255686041Ca8",
        "0x255eC453F14Ed7ba3d7BEbF9F253E17778b6ADF3",
        "100000000",
        "0x6fEA2f1b82aFC40030520a6C49B0d3b652A65915"
      ],
      "transaction": {
        "from": "0x255ec453f14ed7ba3d7bebf9f253e17778b6adf3",
        "to": "0x68d4b357cb74bbfa124f6d7032b26c8b48090c38",
        "gas": "0x5e83d",
        "value": "0x3ff2e795f50000",
        "input": "0x8d3ea4890000000000000000000000000000000000000000000000000000000000002713000000000000000000000000420907b3d7c1d37605c01919891c255686041ca8000000000000000000000000255ec453f14ed7ba3d7bebf9f253e17778b6adf30000000000000000000000000000000000000000000000000000000005f5e1000000000000000000000000006fea2f1b82afc40030520a6c49b0d3b652a65915",
        "nonce": "0x179",
        "chainId": "0xaa36a7"
      },
      "additionalContracts": [],
      "isFixedGasLimit": false
    }
  ],
  "receipts": [
    {
      "status": "0x1",
      "cumulativeGasUsed": "0xd962a5",
      "logs": [],
      "logsBloom": "0x00000000000000000000000000000000000000000000000000000000000000000000000000000000000000000000000000000000000000000000000000000000000000000000000000000000000000000000000000000000000000000000000000000000000000000000000000000000000000000000000000000000000000000000000000000000000000000000000000000000000000000000000000000000000000000000000000000000000000000000000000000000000000000000000000000000000000000000000000000000000000000000000000000000000000000000000000000000000000000000000000000000000000000000000000000000",
      "type": "0x2",
      "transactionHash": "0xa0bcc5d618628c5721abb858dc1f92ace80776fa288129a8ce0b1bee346623ca",
      "transactionIndex": "0x6f",
      "blockHash": "0x99ac3b05c76cb66bde81e986259bff6a5466a45b717fd058f2d1594b297c4c2e",
      "blockNumber": "0x80d30a",
      "gasUsed": "0x125190",
      "effectiveGasPrice": "0xf424f",
      "from": "0x255ec453f14ed7ba3d7bebf9f253e17778b6adf3",
      "to": null,
      "contractAddress": "0x68d4b357cb74bbfa124f6d7032b26c8b48090c38"
    },
    {
      "status": "0x1",
      "cumulativeGasUsed": "0xda1ca1",
      "logs": [
        {
          "address": "0x6fea2f1b82afc40030520a6c49b0d3b652a65915",
          "topics": [
            "0x8c5be1e5ebec7d5bd14f71427d1e84f3dd0314c0f7b2291e5b200ac8c7c3b925",
            "0x000000000000000000000000255ec453f14ed7ba3d7bebf9f253e17778b6adf3",
            "0x00000000000000000000000068d4b357cb74bbfa124f6d7032b26c8b48090c38"
          ],
          "data": "0x0000000000000000000000000000000000000000000000000000000005f5e100",
          "blockHash": "0x99ac3b05c76cb66bde81e986259bff6a5466a45b717fd058f2d1594b297c4c2e",
          "blockNumber": "0x80d30a",
          "transactionHash": "0xc19e29ff3f86861526021019f7e21721a75239c72e9269fa6ae6632518e2ea4f",
          "transactionIndex": "0x70",
          "logIndex": "0xa5",
          "removed": false
        }
      ],
      "logsBloom": "0x00000000000000000000000000000000000000000000020008000010000000000000000000000000000000000000000100000000000000000000000000200000000000000000000000000000000000000000000000000000000000000000000000000000000000000000008000000000000000000000000000000080000000000000000000000000000000000000000000000000000000000000000000000000020000000000000000002080000000000000000000000000000000000000000000000000000000000000000000000000000000000000000000000000000010000010000000000000000000000000000000000000000000000000000000000000",
      "type": "0x2",
      "transactionHash": "0xc19e29ff3f86861526021019f7e21721a75239c72e9269fa6ae6632518e2ea4f",
      "transactionIndex": "0x70",
      "blockHash": "0x99ac3b05c76cb66bde81e986259bff6a5466a45b717fd058f2d1594b297c4c2e",
      "blockNumber": "0x80d30a",
      "gasUsed": "0xb9fc",
      "effectiveGasPrice": "0xf424f",
      "from": "0x255ec453f14ed7ba3d7bebf9f253e17778b6adf3",
      "to": "0x6fea2f1b82afc40030520a6c49b0d3b652a65915",
      "contractAddress": null
    },
    {
      "status": "0x1",
      "cumulativeGasUsed": "0xde26a4",
      "logs": [
        {
          "address": "0x6fea2f1b82afc40030520a6c49b0d3b652a65915",
          "topics": [
            "0xddf252ad1be2c89b69c2b068fc378daa952ba7f163c4a11628f55a4df523b3ef",
            "0x000000000000000000000000255ec453f14ed7ba3d7bebf9f253e17778b6adf3",
            "0x00000000000000000000000068d4b357cb74bbfa124f6d7032b26c8b48090c38"
          ],
          "data": "0x0000000000000000000000000000000000000000000000000000000005f5e100",
          "blockHash": "0x99ac3b05c76cb66bde81e986259bff6a5466a45b717fd058f2d1594b297c4c2e",
          "blockNumber": "0x80d30a",
          "transactionHash": "0x63633ea3d7f4d65953dddda7cb82749bf88d4ba757fd00183cda74ee1a1e1280",
          "transactionIndex": "0x71",
          "logIndex": "0xa6",
          "removed": false
        },
        {
          "address": "0x6fea2f1b82afc40030520a6c49b0d3b652a65915",
          "topics": [
            "0x8c5be1e5ebec7d5bd14f71427d1e84f3dd0314c0f7b2291e5b200ac8c7c3b925",
            "0x000000000000000000000000255ec453f14ed7ba3d7bebf9f253e17778b6adf3",
            "0x00000000000000000000000068d4b357cb74bbfa124f6d7032b26c8b48090c38"
          ],
          "data": "0x0000000000000000000000000000000000000000000000000000000000000000",
          "blockHash": "0x99ac3b05c76cb66bde81e986259bff6a5466a45b717fd058f2d1594b297c4c2e",
          "blockNumber": "0x80d30a",
          "transactionHash": "0x63633ea3d7f4d65953dddda7cb82749bf88d4ba757fd00183cda74ee1a1e1280",
          "transactionIndex": "0x71",
          "logIndex": "0xa7",
          "removed": false
        },
        {
          "address": "0x6fea2f1b82afc40030520a6c49b0d3b652a65915",
          "topics": [
            "0x8c5be1e5ebec7d5bd14f71427d1e84f3dd0314c0f7b2291e5b200ac8c7c3b925",
            "0x00000000000000000000000068d4b357cb74bbfa124f6d7032b26c8b48090c38",
            "0x000000000000000000000000db5492265f6038831e89f495670ff909ade94bd9"
          ],
          "data": "0x0000000000000000000000000000000000000000000000000000000005f5e100",
          "blockHash": "0x99ac3b05c76cb66bde81e986259bff6a5466a45b717fd058f2d1594b297c4c2e",
          "blockNumber": "0x80d30a",
          "transactionHash": "0x63633ea3d7f4d65953dddda7cb82749bf88d4ba757fd00183cda74ee1a1e1280",
          "transactionIndex": "0x71",
          "logIndex": "0xa8",
          "removed": false
        },
        {
          "address": "0x6fea2f1b82afc40030520a6c49b0d3b652a65915",
          "topics": [
            "0xddf252ad1be2c89b69c2b068fc378daa952ba7f163c4a11628f55a4df523b3ef",
            "0x00000000000000000000000068d4b357cb74bbfa124f6d7032b26c8b48090c38",
            "0x000000000000000000000000db5492265f6038831e89f495670ff909ade94bd9"
          ],
          "data": "0x0000000000000000000000000000000000000000000000000000000005f5e100",
          "blockHash": "0x99ac3b05c76cb66bde81e986259bff6a5466a45b717fd058f2d1594b297c4c2e",
          "blockNumber": "0x80d30a",
          "transactionHash": "0x63633ea3d7f4d65953dddda7cb82749bf88d4ba757fd00183cda74ee1a1e1280",
          "transactionIndex": "0x71",
          "logIndex": "0xa9",
          "removed": false
        },
        {
          "address": "0x6fea2f1b82afc40030520a6c49b0d3b652a65915",
          "topics": [
            "0x8c5be1e5ebec7d5bd14f71427d1e84f3dd0314c0f7b2291e5b200ac8c7c3b925",
            "0x00000000000000000000000068d4b357cb74bbfa124f6d7032b26c8b48090c38",
            "0x000000000000000000000000db5492265f6038831e89f495670ff909ade94bd9"
          ],
          "data": "0x0000000000000000000000000000000000000000000000000000000000000000",
          "blockHash": "0x99ac3b05c76cb66bde81e986259bff6a5466a45b717fd058f2d1594b297c4c2e",
          "blockNumber": "0x80d30a",
          "transactionHash": "0x63633ea3d7f4d65953dddda7cb82749bf88d4ba757fd00183cda74ee1a1e1280",
          "transactionIndex": "0x71",
          "logIndex": "0xaa",
          "removed": false
        },
        {
          "address": "0x4a8bc80ed5a4067f1ccf107057b8270e0cc11a78",
          "topics": [
            "0x6eb224fb001ed210e379b335e35efe88672a8ce935d981a6896b27ffdf52a3b2",
            "0x000000000000000000000000db5492265f6038831e89f495670ff909ade94bd9"
          ],
          "data": "0x00000000000000000000000000000000000000000000000000000000000013750000000000000000000000000000000000000000000000000000000000000000000000000000000000000000000000000000000000000000000000000000008000000000000000000000000000000000000000000000000000000000000000010000000000000000000000000000000000000000000000000000000000000085030000000000000000000000000000000000000000000000000000000005f5e1000000000000000000000000006fea2f1b82afc40030520a6c49b0d3b652a659152712000000000000000000000000420907b3d7c1d37605c01919891c255686041ca8271300000000000000000000000068d4b357cb74bbfa124f6d7032b26c8b48090c38000000000000000000000000000000000000000000000000000000",
          "blockHash": "0x99ac3b05c76cb66bde81e986259bff6a5466a45b717fd058f2d1594b297c4c2e",
          "blockNumber": "0x80d30a",
          "transactionHash": "0x63633ea3d7f4d65953dddda7cb82749bf88d4ba757fd00183cda74ee1a1e1280",
          "transactionIndex": "0x71",
          "logIndex": "0xab",
          "removed": false
        },
        {
          "address": "0x4a8bc80ed5a4067f1ccf107057b8270e0cc11a78",
          "topics": [
            "0x6eb224fb001ed210e379b335e35efe88672a8ce935d981a6896b27ffdf52a3b2",
            "0x0000000000000000000000007b1bd7a6b4e61c2a123ac6bc2cbfc614437d0470"
          ],
          "data": "0x000000000000000000000000000000000000000000000000000000000008221a00000000000000000000000000000000000000000000000000000000000000000000000000000000000000000000000000000000000000000000000000000080000000000000000000000000000000000000000000000000000000000000000f0000000000000000000000000000000000000000000000000000000000000199012713000000000000000000000000420907b3d7c1d37605c01919891c255686041ca800000020000000000000000000000000255ec453f14ed7ba3d7bebf9f253e17778b6adf300000000000000000000000000000000000000000000000000000000000000000000000000000000000000000000000000000000000000000000000000000000000000600000000000000000000000000000000000000000000000000000000000000000000000000000000000000000000000000000000000000000000000000003d09000000000000000000000000000000000000000000000000000000006a6fd66db271300000000000000000000000000000000000000000000000000000000000000000000000000000000000000007a0a53847776f7e94cc35742971acb2217b0db810000000000000000000000007a0a53847776f7e94cc35742971acb2217b0db8100000000000000000000000068d4b357cb74bbfa124f6d7032b26c8b48090c3801012712000000000000000000000000db5492265f6038831e89f495670ff909ade94bd9000000000000137500000000000000",
          "blockHash": "0x99ac3b05c76cb66bde81e986259bff6a5466a45b717fd058f2d1594b297c4c2e",
          "blockNumber": "0x80d30a",
          "transactionHash": "0x63633ea3d7f4d65953dddda7cb82749bf88d4ba757fd00183cda74ee1a1e1280",
          "transactionIndex": "0x71",
          "logIndex": "0xac",
          "removed": false
        },
        {
          "address": "0x7b1bd7a6b4e61c2a123ac6bc2cbfc614437d0470",
          "topics": [
            "0xda8540426b64ece7b164a9dce95448765f0a7263ef3ff85091c9c7361e485364",
            "0x000000000000000000000000000000000000000000000000000000000008221a"
          ],
          "data": "0x000000000000000000000000000000000000000000000000003ff2e795f500000000000000000000000000000000000000000000000000000000000000000000",
          "blockHash": "0x99ac3b05c76cb66bde81e986259bff6a5466a45b717fd058f2d1594b297c4c2e",
          "blockNumber": "0x80d30a",
          "transactionHash": "0x63633ea3d7f4d65953dddda7cb82749bf88d4ba757fd00183cda74ee1a1e1280",
          "transactionIndex": "0x71",
          "logIndex": "0xad",
          "removed": false
        }
      ],
      "logsBloom": "0x00000000000100040000000000000010000000000000020008000010000000010010000000000000000000000000000100000000800040000000008000200000000000000000000000000008000080000000002000000000000000000100000000000000000000000000008000000000000040000000000000000090000000000080000000000000000000000100000000000000000000000000108000000000020000000400000000002080000000000000000000000000000000000000000000000002000000000000000000000000000000000000000000000000000010000410000040000000000000020000000040000000000000000000000000000000",
      "type": "0x2",
      "transactionHash": "0x63633ea3d7f4d65953dddda7cb82749bf88d4ba757fd00183cda74ee1a1e1280",
      "transactionIndex": "0x71",
      "blockHash": "0x99ac3b05c76cb66bde81e986259bff6a5466a45b717fd058f2d1594b297c4c2e",
      "blockNumber": "0x80d30a",
      "gasUsed": "0x40a03",
      "effectiveGasPrice": "0xf424f",
      "from": "0x255ec453f14ed7ba3d7bebf9f253e17778b6adf3",
      "to": "0x68d4b357cb74bbfa124f6d7032b26c8b48090c38",
      "contractAddress": null
    }
  ],
  "libraries": [],
  "pending": [],
  "returns": {},
  "timestamp": 1748650232,
  "chain": 11155111,
  "commit": "261220f"
}