{
  "transactions": [
    {
      "hash": "0x41b6452a7b1867bf2524ae17bdf0a00366f50a2d6b68de1dffb2b60a65ab0553",
      "transactionType": "CALL",
      "contractName": null,
      "contractAddress": "0x6fea2f1b82afc40030520a6c49b0d3b652a65915",
      "function": "approve(address,uint256)",
      "arguments": [
        "0xBb65220A6f41819F6c635dd803Ec0AD1626Bed0c",
        "100000000"
      ],
      "transaction": {
        "from": "0x255ec453f14ed7ba3d7bebf9f253e17778b6adf3",
        "to": "0x6fea2f1b82afc40030520a6c49b0d3b652a65915",
        "gas": "0x100e3",
        "value": "0x0",
        "input": "0x095ea7b3000000000000000000000000bb65220a6f41819f6c635dd803ec0ad1626bed0c0000000000000000000000000000000000000000000000000000000005f5e100",
        "nonce": "0x17e",
        "chainId": "0xaa36a7"
      },
      "additionalContracts": [],
      "isFixedGasLimit": false
    },
    {
      "hash": "0x18be41359562cb6b0067971159b97fe757a361f66d9ad9d005bb79dc2b3e775b",
      "transactionType": "CALL",
      "contractName": null,
      "contractAddress": "0xbb65220a6f41819f6c635dd803ec0ad1626bed0c",
      "function": "sendCrossChainDeposit(uint16,address,address,uint256,address)",
      "arguments": [
        "10003",
        "0x762Aa807F578d968B20192eFeE296CC0a819313D",
        "0x255eC453F14Ed7ba3d7BEbF9F253E17778b6ADF3",
        "100000000",
        "0x6fEA2f1b82aFC40030520a6C49B0d3b652A65915"
      ],
      "transaction": {
        "from": "0x255ec453f14ed7ba3d7bebf9f253e17778b6adf3",
        "to": "0xbb65220a6f41819f6c635dd803ec0ad1626bed0c",
        "gas": "0x5e83d",
        "value": "0x3ff2e795f50000",
        "input": "0x8d3ea4890000000000000000000000000000000000000000000000000000000000002713000000000000000000000000762aa807f578d968b20192efee296cc0a819313d000000000000000000000000255ec453f14ed7ba3d7bebf9f253e17778b6adf30000000000000000000000000000000000000000000000000000000005f5e1000000000000000000000000006fea2f1b82afc40030520a6c49b0d3b652a65915",
        "nonce": "0x17f",
        "chainId": "0xaa36a7"
      },
      "additionalContracts": [],
      "isFixedGasLimit": false
    }
  ],
  "receipts": [
    {
      "status": "0x1",
      "cumulativeGasUsed": "0x1bd3848",
      "logs": [
        {
          "address": "0x6fea2f1b82afc40030520a6c49b0d3b652a65915",
          "topics": [
            "0x8c5be1e5ebec7d5bd14f71427d1e84f3dd0314c0f7b2291e5b200ac8c7c3b925",
            "0x000000000000000000000000255ec453f14ed7ba3d7bebf9f253e17778b6adf3",
            "0x000000000000000000000000bb65220a6f41819f6c635dd803ec0ad1626bed0c"
          ],
          "data": "0x0000000000000000000000000000000000000000000000000000000005f5e100",
          "blockHash": "0xd48ba8f5db844d65b69ee03ab9434c76f2f5567febbbffff2f6adbca3d497fd1",
          "blockNumber": "0x80dff3",
          "transactionHash": "0x41b6452a7b1867bf2524ae17bdf0a00366f50a2d6b68de1dffb2b60a65ab0553",
          "transactionIndex": "0xee",
          "logIndex": "0x1e2",
          "removed": false
        }
      ],
      "logsBloom": "0x00000000000000000000000000000000000000000000020000000010000000000000000000000000000000000000000000000000000000000000000000200000000000000000000000000000000000000000000000000000000000000000000000000000000000000000008000000000100000000000000000000080000000000000000000000000000000000000000000000000000000000000000000000000020000000000008000000080000000000000000000000000000000000000000000000000000000000000000000000000000000000000000000010000000010000010000000000000000000000000000000000000000000000000000000000000",
      "type": "0x2",
      "transactionHash": "0x41b6452a7b1867bf2524ae17bdf0a00366f50a2d6b68de1dffb2b60a65ab0553",
      "transactionIndex": "0xee",
      "blockHash": "0xd48ba8f5db844d65b69ee03ab9434c76f2f5567febbbffff2f6adbca3d497fd1",
      "blockNumber": "0x80dff3",
      "gasUsed": "0xb9fc",
      "effectiveGasPrice": "0xf45f3",
      "from": "0x255ec453f14ed7ba3d7bebf9f253e17778b6adf3",
      "to": "0x6fea2f1b82afc40030520a6c49b0d3b652a65915",
      "contractAddress": null
    },
    {
      "status": "0x1",
      "cumulativeGasUsed": "0x1c1424b",
      "logs": [
        {
          "address": "0x6fea2f1b82afc40030520a6c49b0d3b652a65915",
          "topics": [
            "0xddf252ad1be2c89b69c2b068fc378daa952ba7f163c4a11628f55a4df523b3ef",
            "0x000000000000000000000000255ec453f14ed7ba3d7bebf9f253e17778b6adf3",
            "0x000000000000000000000000bb65220a6f41819f6c635dd803ec0ad1626bed0c"
          ],
          "data": "0x0000000000000000000000000000000000000000000000000000000005f5e100",
          "blockHash": "0xd48ba8f5db844d65b69ee03ab9434c76f2f5567febbbffff2f6adbca3d497fd1",
          "blockNumber": "0x80dff3",
          "transactionHash": "0x18be41359562cb6b0067971159b97fe757a361f66d9ad9d005bb79dc2b3e775b",
          "transactionIndex": "0xef",
          "logIndex": "0x1e3",
          "removed": false
        },
        {
          "address": "0x6fea2f1b82afc40030520a6c49b0d3b652a65915",
          "topics": [
            "0x8c5be1e5ebec7d5bd14f71427d1e84f3dd0314c0f7b2291e5b200ac8c7c3b925",
            "0x000000000000000000000000255ec453f14ed7ba3d7bebf9f253e17778b6adf3",
            "0x000000000000000000000000bb65220a6f41819f6c635dd803ec0ad1626bed0c"
          ],
          "data": "0x0000000000000000000000000000000000000000000000000000000000000000",
          "blockHash": "0xd48ba8f5db844d65b69ee03ab9434c76f2f5567febbbffff2f6adbca3d497fd1",
          "blockNumber": "0x80dff3",
          "transactionHash": "0x18be41359562cb6b0067971159b97fe757a361f66d9ad9d005bb79dc2b3e775b",
          "transactionIndex": "0xef",
          "logIndex": "0x1e4",
          "removed": false
        },
        {
          "address": "0x6fea2f1b82afc40030520a6c49b0d3b652a65915",
          "topics": [
            "0x8c5be1e5ebec7d5bd14f71427d1e84f3dd0314c0f7b2291e5b200ac8c7c3b925",
            "0x000000000000000000000000bb65220a6f41819f6c635dd803ec0ad1626bed0c",
            "0x000000000000000000000000db5492265f6038831e89f495670ff909ade94bd9"
          ],
          "data": "0x0000000000000000000000000000000000000000000000000000000005f5e100",
          "blockHash": "0xd48ba8f5db844d65b69ee03ab9434c76f2f5567febbbffff2f6adbca3d497fd1",
          "blockNumber": "0x80dff3",
          "transactionHash": "0x18be41359562cb6b0067971159b97fe757a361f66d9ad9d005bb79dc2b3e775b",
          "transactionIndex": "0xef",
          "logIndex": "0x1e5",
          "removed": false
        },
        {
          "address": "0x6fea2f1b82afc40030520a6c49b0d3b652a65915",
          "topics": [
            "0xddf252ad1be2c89b69c2b068fc378daa952ba7f163c4a11628f55a4df523b3ef",
            "0x000000000000000000000000bb65220a6f41819f6c635dd803ec0ad1626bed0c",
            "0x000000000000000000000000db5492265f6038831e89f495670ff909ade94bd9"
          ],
          "data": "0x0000000000000000000000000000000000000000000000000000000005f5e100",
          "blockHash": "0xd48ba8f5db844d65b69ee03ab9434c76f2f5567febbbffff2f6adbca3d497fd1",
          "blockNumber": "0x80dff3",
          "transactionHash": "0x18be41359562cb6b0067971159b97fe757a361f66d9ad9d005bb79dc2b3e775b",
          "transactionIndex": "0xef",
          "logIndex": "0x1e6",
          "removed": false
        },
        {
          "address": "0x6fea2f1b82afc40030520a6c49b0d3b652a65915",
          "topics": [
            "0x8c5be1e5ebec7d5bd14f71427d1e84f3dd0314c0f7b2291e5b200ac8c7c3b925",
            "0x000000000000000000000000bb65220a6f41819f6c635dd803ec0ad1626bed0c",
            "0x000000000000000000000000db5492265f6038831e89f495670ff909ade94bd9"
          ],
          "data": "0x0000000000000000000000000000000000000000000000000000000000000000",
          "blockHash": "0xd48ba8f5db844d65b69ee03ab9434c76f2f5567febbbffff2f6adbca3d497fd1",
          "blockNumber": "0x80dff3",
          "transactionHash": "0x18be41359562cb6b0067971159b97fe757a361f66d9ad9d005bb79dc2b3e775b",
          "transactionIndex": "0xef",
          "logIndex": "0x1e7",
          "removed": false
        },
        {
          "address": "0x4a8bc80ed5a4067f1ccf107057b8270e0cc11a78",
          "topics": [
            "0x6eb224fb001ed210e379b335e35efe88672a8ce935d981a6896b27ffdf52a3b2",
            "0x000000000000000000000000db5492265f6038831e89f495670ff909ade94bd9"
          ],
          "data": "0x00000000000000000000000000000000000000000000000000000000000013780000000000000000000000000000000000000000000000000000000000000000000000000000000000000000000000000000000000000000000000000000008000000000000000000000000000000000000000000000000000000000000000010000000000000000000000000000000000000000000000000000000000000085030000000000000000000000000000000000000000000000000000000005f5e1000000000000000000000000006fea2f1b82afc40030520a6c49b0d3b652a659152712000000000000000000000000762aa807f578d968b20192efee296cc0a819313d2713000000000000000000000000bb65220a6f41819f6c635dd803ec0ad1626bed0c000000000000000000000000000000000000000000000000000000",
          "blockHash": "0xd48ba8f5db844d65b69ee03ab9434c76f2f5567febbbffff2f6adbca3d497fd1",
          "blockNumber": "0x80dff3",
          "transactionHash": "0x18be41359562cb6b0067971159b97fe757a361f66d9ad9d005bb79dc2b3e775b",
          "transactionIndex": "0xef",
          "logIndex": "0x1e8",
          "removed": false
        },
        {
          "address": "0x4a8bc80ed5a4067f1ccf107057b8270e0cc11a78",
          "topics": [
            "0x6eb224fb001ed210e379b335e35efe88672a8ce935d981a6896b27ffdf52a3b2",
            "0x0000000000000000000000007b1bd7a6b4e61c2a123ac6bc2cbfc614437d0470"
          ],
          "data": "0x000000000000000000000000000000000000000000000000000000000008272a00000000000000000000000000000000000000000000000000000000000000000000000000000000000000000000000000000000000000000000000000000080000000000000000000000000000000000000000000000000000000000000000f0000000000000000000000000000000000000000000000000000000000000199012713000000000000000000000000762aa807f578d968b20192efee296cc0a819313d00000020000000000000000000000000255ec453f14ed7ba3d7bebf9f253e17778b6adf300000000000000000000000000000000000000000000000000000000000000000000000000000000000000000000000000000000000000000000000000000000000000600000000000000000000000000000000000000000000000000000000000000000000000000000000000000000000000000000000000000000000000000003d09000000000000000000000000000000000000000000000000000000006a6fd66db271300000000000000000000000000000000000000000000000000000000000000000000000000000000000000007a0a53847776f7e94cc35742971acb2217b0db810000000000000000000000007a0a53847776f7e94cc35742971acb2217b0db81000000000000000000000000bb65220a6f41819f6c635dd803ec0ad1626bed0c01012712000000000000000000000000db5492265f6038831e89f495670ff909ade94bd9000000000000137800000000000000",
          "blockHash": "0xd48ba8f5db844d65b69ee03ab9434c76f2f5567febbbffff2f6adbca3d497fd1",
          "blockNumber": "0x80dff3",
          "transactionHash": "0x18be41359562cb6b0067971159b97fe757a361f66d9ad9d005bb79dc2b3e775b",
          "transactionIndex": "0xef",
          "logIndex": "0x1e9",
          "removed": false
        },
        {
          "address": "0x7b1bd7a6b4e61c2a123ac6bc2cbfc614437d0470",
          "topics": [
            "0xda8540426b64ece7b164a9dce95448765f0a7263ef3ff85091c9c7361e485364",
            "0x000000000000000000000000000000000000000000000000000000000008272a"
          ],
          "data": "0x000000000000000000000000000000000000000000000000003ff2e795f500000000000000000000000000000000000000000000000000000000000000000000",
          "blockHash": "0xd48ba8f5db844d65b69ee03ab9434c76f2f5567febbbffff2f6adbca3d497fd1",
          "blockNumber": "0x80dff3",
          "transactionHash": "0x18be41359562cb6b0067971159b97fe757a361f66d9ad9d005bb79dc2b3e775b",
          "transactionIndex": "0xef",
          "logIndex": "0x1ea",
          "removed": false
        }
      ],
      "logsBloom": "0x00000000000100040000000000000010000000000000020000000010000000010010000000000000000000000000000000000000800040000000008000200000000000000000001000000008000080000000000000000000000000000100000000000000000000000000008000000000100040000000002000000090000000000080000000000000000000000100000000000000000008000000108000000000020000000400008000000080000000000000000000000000000000000000000000000002000000000000000000000000000000000000000000010000000010000410000000000000000000020000000000000000000000000000000000000000",
      "type": "0x2",
      "transactionHash": "0x18be41359562cb6b0067971159b97fe757a361f66d9ad9d005bb79dc2b3e775b",
      "transactionIndex": "0xef",
      "blockHash": "0xd48ba8f5db844d65b69ee03ab9434c76f2f5567febbbffff2f6adbca3d497fd1",
      "blockNumber": "0x80dff3",
      "gasUsed": "0x40a03",
      "effectiveGasPrice": "0xf45f3",
      "from": "0x255ec453f14ed7ba3d7bebf9f253e17778b6adf3",
      "to": "0xbb65220a6f41819f6c635dd803ec0ad1626bed0c",
      "contractAddress": null
    }
  ],
  "libraries": [],
  "pending": [],
  "returns": {},
  "timestamp": 1748689885,
  "chain": 11155111,
  "commit": "261220f"
}