{
  "transactions": [
    {
      "hash": "0xe4eb9081cf6f0a4be1d0c5d0c40ecc76c2f36d7a45ca500a455467c32062292e",
      "transactionType": "CALL",
      "contractName": null,
      "contractAddress": "0x6fea2f1b82afc40030520a6c49b0d3b652a65915",
      "function": "approve(address,uint256)",
      "arguments": [
        "0xBb65220A6f41819F6c635dd803Ec0AD1626Bed0c",
        "100000000"
      ],
      "transaction": {
        "from": "0x255ec453f14ed7ba3d7bebf9f253e17778b6adf3",
        "to": "0x6fea2f1b82afc40030520a6c49b0d3b652a65915",
        "gas": "0x100e3",
        "value": "0x0",
        "input": "0x095ea7b3000000000000000000000000bb65220a6f41819f6c635dd803ec0ad1626bed0c0000000000000000000000000000000000000000000000000000000005f5e100",
        "nonce": "0x17c",
        "chainId": "0xaa36a7"
      },
      "additionalContracts": [],
      "isFixedGasLimit": false
    },
    {
      "hash": "0x8162dd5d984bc2afd2d359b6ea3376a06a3dfa5384175de81f0bda02dbcaec4f",
      "transactionType": "CALL",
      "contractName": null,
      "contractAddress": "0xbb65220a6f41819f6c635dd803ec0ad1626bed0c",
      "function": "sendCrossChainDeposit(uint16,address,address,uint256,address)",
      "arguments": [
        "10003",
        "0x420907B3d7c1D37605C01919891c255686041Ca8",
        "0x255eC453F14Ed7ba3d7BEbF9F253E17778b6ADF3",
        "100000000",
        "0x6fEA2f1b82aFC40030520a6C49B0d3b652A65915"
      ],
      "transaction": {
        "from": "0x255ec453f14ed7ba3d7bebf9f253e17778b6adf3",
        "to": "0xbb65220a6f41819f6c635dd803ec0ad1626bed0c",
        "gas": "0x5e83d",
        "value": "0x3ff2e795f50000",
        "input": "0x8d3ea4890000000000000000000000000000000000000000000000000000000000002713000000000000000000000000420907b3d7c1d37605c01919891c255686041ca8000000000000000000000000255ec453f14ed7ba3d7bebf9f253e17778b6adf30000000000000000000000000000000000000000000000000000000005f5e1000000000000000000000000006fea2f1b82afc40030520a6c49b0d3b652a65915",
        "nonce": "0x17d",
        "chainId": "0xaa36a7"
      },
      "additionalContracts": [],
      "isFixedGasLimit": false
    }
  ],
  "receipts": [
    {
      "status": "0x1",
      "cumulativeGasUsed": "0x1e4c9d3",
      "logs": [
        {
          "address": "0x6fea2f1b82afc40030520a6c49b0d3b652a65915",
          "topics": [
            "0x8c5be1e5ebec7d5bd14f71427d1e84f3dd0314c0f7b2291e5b200ac8c7c3b925",
            "0x000000000000000000000000255ec453f14ed7ba3d7bebf9f253e17778b6adf3",
            "0x000000000000000000000000bb65220a6f41819f6c635dd803ec0ad1626bed0c"
          ],
          "data": "0x0000000000000000000000000000000000000000000000000000000005f5e100",
          "blockHash": "0xe9d4023defb30d0e8a7f610265e441ddf9dd9c757159816de96cc0e3e5196cb5",
          "blockNumber": "0x80df5f",
          "transactionHash": "0xe4eb9081cf6f0a4be1d0c5d0c40ecc76c2f36d7a45ca500a455467c32062292e",
          "transactionIndex": "0xbe",
          "logIndex": "0x1ec",
          "removed": false
        }
      ],
      "logsBloom": "0x00000000000000000000000000000000000000000000020000000010000000000000000000000000000000000000000000000000000000000000000000200000000000000000000000000000000000000000000000000000000000000000000000000000000000000000008000000000100000000000000000000080000000000000000000000000000000000000000000000000000000000000000000000000020000000000008000000080000000000000000000000000000000000000000000000000000000000000000000000000000000000000000000010000000010000010000000000000000000000000000000000000000000000000000000000000",
      "type": "0x2",
      "transactionHash": "0xe4eb9081cf6f0a4be1d0c5d0c40ecc76c2f36d7a45ca500a455467c32062292e",
      "transactionIndex": "0xbe",
      "blockHash": "0xe9d4023defb30d0e8a7f610265e441ddf9dd9c757159816de96cc0e3e5196cb5",
      "blockNumber": "0x80df5f",
      "gasUsed": "0xb9fc",
      "effectiveGasPrice": "0x1017b1",
      "from": "0x255ec453f14ed7ba3d7bebf9f253e17778b6adf3",
      "to": "0x6fea2f1b82afc40030520a6c49b0d3b652a65915",
      "contractAddress": null
    },
    {
      "status": "0x1",
      "cumulativeGasUsed": "0x1e8d3d6",
      "logs": [
        {
          "address": "0x6fea2f1b82afc40030520a6c49b0d3b652a65915",
          "topics": [
            "0xddf252ad1be2c89b69c2b068fc378daa952ba7f163c4a11628f55a4df523b3ef",
            "0x000000000000000000000000255ec453f14ed7ba3d7bebf9f253e17778b6adf3",
            "0x000000000000000000000000bb65220a6f41819f6c635dd803ec0ad1626bed0c"
          ],
          "data": "0x0000000000000000000000000000000000000000000000000000000005f5e100",
          "blockHash": "0xe9d4023defb30d0e8a7f610265e441ddf9dd9c757159816de96cc0e3e5196cb5",
          "blockNumber": "0x80df5f",
          "transactionHash": "0x8162dd5d984bc2afd2d359b6ea3376a06a3dfa5384175de81f0bda02dbcaec4f",
          "transactionIndex": "0xbf",
          "logIndex": "0x1ed",
          "removed": false
        },
        {
          "address": "0x6fea2f1b82afc40030520a6c49b0d3b652a65915",
          "topics": [
            "0x8c5be1e5ebec7d5bd14f71427d1e84f3dd0314c0f7b2291e5b200ac8c7c3b925",
            "0x000000000000000000000000255ec453f14ed7ba3d7bebf9f253e17778b6adf3",
            "0x000000000000000000000000bb65220a6f41819f6c635dd803ec0ad1626bed0c"
          ],
          "data": "0x0000000000000000000000000000000000000000000000000000000000000000",
          "blockHash": "0xe9d4023defb30d0e8a7f610265e441ddf9dd9c757159816de96cc0e3e5196cb5",
          "blockNumber": "0x80df5f",
          "transactionHash": "0x8162dd5d984bc2afd2d359b6ea3376a06a3dfa5384175de81f0bda02dbcaec4f",
          "transactionIndex": "0xbf",
          "logIndex": "0x1ee",
          "removed": false
        },
        {
          "address": "0x6fea2f1b82afc40030520a6c49b0d3b652a65915",
          "topics": [
            "0x8c5be1e5ebec7d5bd14f71427d1e84f3dd0314c0f7b2291e5b200ac8c7c3b925",
            "0x000000000000000000000000bb65220a6f41819f6c635dd803ec0ad1626bed0c",
            "0x000000000000000000000000db5492265f6038831e89f495670ff909ade94bd9"
          ],
          "data": "0x0000000000000000000000000000000000000000000000000000000005f5e100",
          "blockHash": "0xe9d4023defb30d0e8a7f610265e441ddf9dd9c757159816de96cc0e3e5196cb5",
          "blockNumber": "0x80df5f",
          "transactionHash": "0x8162dd5d984bc2afd2d359b6ea3376a06a3dfa5384175de81f0bda02dbcaec4f",
          "transactionIndex": "0xbf",
          "logIndex": "0x1ef",
          "removed": false
        },
        {
          "address": "0x6fea2f1b82afc40030520a6c49b0d3b652a65915",
          "topics": [
            "0xddf252ad1be2c89b69c2b068fc378daa952ba7f163c4a11628f55a4df523b3ef",
            "0x000000000000000000000000bb65220a6f41819f6c635dd803ec0ad1626bed0c",
            "0x000000000000000000000000db5492265f6038831e89f495670ff909ade94bd9"
          ],
          "data": "0x0000000000000000000000000000000000000000000000000000000005f5e100",
          "blockHash": "0xe9d4023defb30d0e8a7f610265e441ddf9dd9c757159816de96cc0e3e5196cb5",
          "blockNumber": "0x80df5f",
          "transactionHash": "0x8162dd5d984bc2afd2d359b6ea3376a06a3dfa5384175de81f0bda02dbcaec4f",
          "transactionIndex": "0xbf",
          "logIndex": "0x1f0",
          "removed": false
        },
        {
          "address": "0x6fea2f1b82afc40030520a6c49b0d3b652a65915",
          "topics": [
            "0x8c5be1e5ebec7d5bd14f71427d1e84f3dd0314c0f7b2291e5b200ac8c7c3b925",
            "0x000000000000000000000000bb65220a6f41819f6c635dd803ec0ad1626bed0c",
            "0x000000000000000000000000db5492265f6038831e89f495670ff909ade94bd9"
          ],
          "data": "0x0000000000000000000000000000000000000000000000000000000000000000",
          "blockHash": "0xe9d4023defb30d0e8a7f610265e441ddf9dd9c757159816de96cc0e3e5196cb5",
          "blockNumber": "0x80df5f",
          "transactionHash": "0x8162dd5d984bc2afd2d359b6ea3376a06a3dfa5384175de81f0bda02dbcaec4f",
          "transactionIndex": "0xbf",
          "logIndex": "0x1f1",
          "removed": false
        },
        {
          "address": "0x4a8bc80ed5a4067f1ccf107057b8270e0cc11a78",
          "topics": [
            "0x6eb224fb001ed210e379b335e35efe88672a8ce935d981a6896b27ffdf52a3b2",
            "0x000000000000000000000000db5492265f6038831e89f495670ff909ade94bd9"
          ],
          "data": "0x00000000000000000000000000000000000000000000000000000000000013770000000000000000000000000000000000000000000000000000000000000000000000000000000000000000000000000000000000000000000000000000008000000000000000000000000000000000000000000000000000000000000000010000000000000000000000000000000000000000000000000000000000000085030000000000000000000000000000000000000000000000000000000005f5e1000000000000000000000000006fea2f1b82afc40030520a6c49b0d3b652a659152712000000000000000000000000420907b3d7c1d37605c01919891c255686041ca82713000000000000000000000000bb65220a6f41819f6c635dd803ec0ad1626bed0c000000000000000000000000000000000000000000000000000000",
          "blockHash": "0xe9d4023defb30d0e8a7f610265e441ddf9dd9c757159816de96cc0e3e5196cb5",
          "blockNumber": "0x80df5f",
          "transactionHash": "0x8162dd5d984bc2afd2d359b6ea3376a06a3dfa5384175de81f0bda02dbcaec4f",
          "transactionIndex": "0xbf",
          "logIndex": "0x1f2",
          "removed": false
        },
        {
          "address": "0x4a8bc80ed5a4067f1ccf107057b8270e0cc11a78",
          "topics": [
            "0x6eb224fb001ed210e379b335e35efe88672a8ce935d981a6896b27ffdf52a3b2",
            "0x0000000000000000000000007b1bd7a6b4e61c2a123ac6bc2cbfc614437d0470"
          ],
          "data": "0x00000000000000000000000000000000000000000000000000000000000826ee00000000000000000000000000000000000000000000000000000000000000000000000000000000000000000000000000000000000000000000000000000080000000000000000000000000000000000000000000000000000000000000000f0000000000000000000000000000000000000000000000000000000000000199012713000000000000000000000000420907b3d7c1d37605c01919891c255686041ca800000020000000000000000000000000255ec453f14ed7ba3d7bebf9f253e17778b6adf300000000000000000000000000000000000000000000000000000000000000000000000000000000000000000000000000000000000000000000000000000000000000600000000000000000000000000000000000000000000000000000000000000000000000000000000000000000000000000000000000000000000000000003d09000000000000000000000000000000000000000000000000000000006a6fd66db271300000000000000000000000000000000000000000000000000000000000000000000000000000000000000007a0a53847776f7e94cc35742971acb2217b0db810000000000000000000000007a0a53847776f7e94cc35742971acb2217b0db81000000000000000000000000bb65220a6f41819f6c635dd803ec0ad1626bed0c01012712000000000000000000000000db5492265f6038831e89f495670ff909ade94bd9000000000000137700000000000000",
          "blockHash": "0xe9d4023defb30d0e8a7f610265e441ddf9dd9c757159816de96cc0e3e5196cb5",
          "blockNumber": "0x80df5f",
          "transactionHash": "0x8162dd5d984bc2afd2d359b6ea3376a06a3dfa5384175de81f0bda02dbcaec4f",
          "transactionIndex": "0xbf",
          "logIndex": "0x1f3",
          "removed": false
        },
        {
          "address": "0x7b1bd7a6b4e61c2a123ac6bc2cbfc614437d0470",
          "topics": [
            "0xda8540426b64ece7b164a9dce95448765f0a7263ef3ff85091c9c7361e485364",
            "0x00000000000000000000000000000000000000000000000000000000000826ee"
          ],
          "data": "0x000000000000000000000000000000000000000000000000003ff2e795f500000000000000000000000000000000000000000000000000000000000000000000",
          "blockHash": "0xe9d4023defb30d0e8a7f610265e441ddf9dd9c757159816de96cc0e3e5196cb5",
          "blockNumber": "0x80df5f",
          "transactionHash": "0x8162dd5d984bc2afd2d359b6ea3376a06a3dfa5384175de81f0bda02dbcaec4f",
          "transactionIndex": "0xbf",
          "logIndex": "0x1f4",
          "removed": false
        }
      ],
      "logsBloom": "0x00000000000140040000000000000010000000000000020000000010000000010010000000000000000000000000000000000000800040000000008000200000000000000000000000000008000080000000000000000001000000000100000000000000000000000000008000000000100040000000000000000090000000000080000000000000000000000100000000000000000000000000108000000000020000000400008000000080000000000000000000000000000000000000000000000002000000000000000000000000000000000000800000010000000010000410000000000000000000020000000000000000000000000000000000000000",
      "type": "0x2",
      "transactionHash": "0x8162dd5d984bc2afd2d359b6ea3376a06a3dfa5384175de81f0bda02dbcaec4f",
      "transactionIndex": "0xbf",
      "blockHash": "0xe9d4023defb30d0e8a7f610265e441ddf9dd9c757159816de96cc0e3e5196cb5",
      "blockNumber": "0x80df5f",
      "gasUsed": "0x40a03",
      "effectiveGasPrice": "0x1017b1",
      "from": "0x255ec453f14ed7ba3d7bebf9f253e17778b6adf3",
      "to": "0xbb65220a6f41819f6c635dd803ec0ad1626bed0c",
      "contractAddress": null
    }
  ],
  "libraries": [],
  "pending": [],
  "returns": {},
  "timestamp": 1748688108,
  "chain": 11155111,
  "commit": "261220f"
}